{
  "contractName": "CryptoSuits",
  "abi": [
    {
      "inputs": [],
      "stateMutability": "nonpayable",
      "type": "constructor"
    },
    {
      "anonymous": false,
      "inputs": [
        {
          "indexed": true,
          "internalType": "address",
          "name": "owner",
          "type": "address"
        },
        {
          "indexed": true,
          "internalType": "address",
          "name": "approved",
          "type": "address"
        },
        {
          "indexed": true,
          "internalType": "uint256",
          "name": "tokenId",
          "type": "uint256"
        }
      ],
      "name": "Approval",
      "type": "event"
    },
    {
      "anonymous": false,
      "inputs": [
        {
          "indexed": true,
          "internalType": "address",
          "name": "owner",
          "type": "address"
        },
        {
          "indexed": true,
          "internalType": "address",
          "name": "operator",
          "type": "address"
        },
        {
          "indexed": false,
          "internalType": "bool",
          "name": "approved",
          "type": "bool"
        }
      ],
      "name": "ApprovalForAll",
      "type": "event"
    },
    {
      "anonymous": false,
      "inputs": [
        {
          "indexed": false,
          "internalType": "address",
          "name": "minterAddress",
          "type": "address"
        },
        {
          "indexed": false,
          "internalType": "address",
          "name": "winnerAddress",
          "type": "address"
        },
        {
          "indexed": false,
          "internalType": "uint256",
          "name": "tokenId",
          "type": "uint256"
        }
      ],
      "name": "GiveAway",
      "type": "event"
    },
    {
      "anonymous": false,
      "inputs": [
        {
          "indexed": false,
          "internalType": "address",
          "name": "minterAddress",
          "type": "address"
        },
        {
          "indexed": false,
          "internalType": "address",
          "name": "buyerAddress",
          "type": "address"
        },
        {
          "indexed": false,
          "internalType": "uint256",
          "name": "tokenId",
          "type": "uint256"
        }
      ],
      "name": "Mint",
      "type": "event"
    },
    {
      "anonymous": false,
      "inputs": [
        {
          "indexed": true,
          "internalType": "address",
          "name": "previousOwner",
          "type": "address"
        },
        {
          "indexed": true,
          "internalType": "address",
          "name": "newOwner",
          "type": "address"
        }
      ],
      "name": "OwnershipTransferred",
      "type": "event"
    },
    {
      "anonymous": false,
      "inputs": [
        {
          "indexed": false,
          "internalType": "bool",
          "name": "started",
          "type": "bool"
        }
      ],
      "name": "SaleStarted",
      "type": "event"
    },
    {
      "anonymous": false,
      "inputs": [
        {
          "indexed": true,
          "internalType": "address",
          "name": "from",
          "type": "address"
        },
        {
          "indexed": true,
          "internalType": "address",
          "name": "to",
          "type": "address"
        },
        {
          "indexed": true,
          "internalType": "uint256",
          "name": "tokenId",
          "type": "uint256"
        }
      ],
      "name": "Transfer",
      "type": "event"
    },
    {
      "anonymous": false,
      "inputs": [
        {
          "indexed": false,
          "internalType": "uint256",
          "name": "amount",
          "type": "uint256"
        }
      ],
      "name": "Withdraw",
      "type": "event"
    },
    {
      "inputs": [
        {
          "internalType": "address",
          "name": "to",
          "type": "address"
        },
        {
          "internalType": "uint256",
          "name": "tokenId",
          "type": "uint256"
        }
      ],
      "name": "approve",
      "outputs": [],
      "stateMutability": "nonpayable",
      "type": "function"
    },
    {
      "inputs": [
        {
          "internalType": "address",
          "name": "owner",
          "type": "address"
        }
      ],
      "name": "balanceOf",
      "outputs": [
        {
          "internalType": "uint256",
          "name": "",
          "type": "uint256"
        }
      ],
      "stateMutability": "view",
      "type": "function"
    },
    {
      "inputs": [],
      "name": "baseURI",
      "outputs": [
        {
          "internalType": "string",
          "name": "",
          "type": "string"
        }
      ],
      "stateMutability": "view",
      "type": "function"
    },
    {
      "inputs": [
        {
          "internalType": "uint256",
          "name": "tokenId",
          "type": "uint256"
        }
      ],
      "name": "getApproved",
      "outputs": [
        {
          "internalType": "address",
          "name": "",
          "type": "address"
        }
      ],
      "stateMutability": "view",
      "type": "function"
    },
    {
      "inputs": [
        {
          "internalType": "address",
          "name": "owner",
          "type": "address"
        },
        {
          "internalType": "address",
          "name": "operator",
          "type": "address"
        }
      ],
      "name": "isApprovedForAll",
      "outputs": [
        {
          "internalType": "bool",
          "name": "",
          "type": "bool"
        }
      ],
      "stateMutability": "view",
      "type": "function"
    },
    {
      "inputs": [],
      "name": "maxPurchase",
      "outputs": [
        {
          "internalType": "uint256",
          "name": "",
          "type": "uint256"
        }
      ],
      "stateMutability": "view",
      "type": "function"
    },
    {
      "inputs": [],
      "name": "name",
      "outputs": [
        {
          "internalType": "string",
          "name": "",
          "type": "string"
        }
      ],
      "stateMutability": "view",
      "type": "function"
    },
    {
      "inputs": [],
      "name": "owner",
      "outputs": [
        {
          "internalType": "address",
          "name": "",
          "type": "address"
        }
      ],
      "stateMutability": "view",
      "type": "function"
    },
    {
      "inputs": [
        {
          "internalType": "uint256",
          "name": "tokenId",
          "type": "uint256"
        }
      ],
      "name": "ownerOf",
      "outputs": [
        {
          "internalType": "address",
          "name": "",
          "type": "address"
        }
      ],
      "stateMutability": "view",
      "type": "function"
    },
    {
      "inputs": [],
      "name": "paused",
      "outputs": [
        {
          "internalType": "bool",
          "name": "",
          "type": "bool"
        }
      ],
      "stateMutability": "view",
      "type": "function"
    },
    {
      "inputs": [],
      "name": "price",
      "outputs": [
        {
          "internalType": "uint256",
          "name": "",
          "type": "uint256"
        }
      ],
      "stateMutability": "view",
      "type": "function"
    },
    {
      "inputs": [],
      "name": "renounceOwnership",
      "outputs": [],
      "stateMutability": "nonpayable",
      "type": "function"
    },
    {
      "inputs": [
        {
          "internalType": "address",
          "name": "from",
          "type": "address"
        },
        {
          "internalType": "address",
          "name": "to",
          "type": "address"
        },
        {
          "internalType": "uint256",
          "name": "tokenId",
          "type": "uint256"
        }
      ],
      "name": "safeTransferFrom",
      "outputs": [],
      "stateMutability": "nonpayable",
      "type": "function"
    },
    {
      "inputs": [
        {
          "internalType": "address",
          "name": "from",
          "type": "address"
        },
        {
          "internalType": "address",
          "name": "to",
          "type": "address"
        },
        {
          "internalType": "uint256",
          "name": "tokenId",
          "type": "uint256"
        },
        {
          "internalType": "bytes",
          "name": "_data",
          "type": "bytes"
        }
      ],
      "name": "safeTransferFrom",
      "outputs": [],
      "stateMutability": "nonpayable",
      "type": "function"
    },
    {
      "inputs": [
        {
          "internalType": "address",
          "name": "operator",
          "type": "address"
        },
        {
          "internalType": "bool",
          "name": "approved",
          "type": "bool"
        }
      ],
      "name": "setApprovalForAll",
      "outputs": [],
      "stateMutability": "nonpayable",
      "type": "function"
    },
    {
      "inputs": [
        {
          "internalType": "bytes4",
          "name": "interfaceId",
          "type": "bytes4"
        }
      ],
      "name": "supportsInterface",
      "outputs": [
        {
          "internalType": "bool",
          "name": "",
          "type": "bool"
        }
      ],
      "stateMutability": "view",
      "type": "function"
    },
    {
      "inputs": [],
      "name": "symbol",
      "outputs": [
        {
          "internalType": "string",
          "name": "",
          "type": "string"
        }
      ],
      "stateMutability": "view",
      "type": "function"
    },
    {
      "inputs": [
        {
          "internalType": "uint256",
          "name": "tokenId",
          "type": "uint256"
        }
      ],
      "name": "tokenURI",
      "outputs": [
        {
          "internalType": "string",
          "name": "",
          "type": "string"
        }
      ],
      "stateMutability": "view",
      "type": "function"
    },
    {
      "inputs": [],
      "name": "totalSupply",
      "outputs": [
        {
          "internalType": "uint256",
          "name": "",
          "type": "uint256"
        }
      ],
      "stateMutability": "view",
      "type": "function"
    },
    {
      "inputs": [
        {
          "internalType": "address",
          "name": "from",
          "type": "address"
        },
        {
          "internalType": "address",
          "name": "to",
          "type": "address"
        },
        {
          "internalType": "uint256",
          "name": "tokenId",
          "type": "uint256"
        }
      ],
      "name": "transferFrom",
      "outputs": [],
      "stateMutability": "nonpayable",
      "type": "function"
    },
    {
      "inputs": [
        {
          "internalType": "address",
          "name": "newOwner",
          "type": "address"
        }
      ],
      "name": "transferOwnership",
      "outputs": [],
      "stateMutability": "nonpayable",
      "type": "function"
    },
    {
      "inputs": [
        {
          "internalType": "address",
          "name": "buyerAddress",
          "type": "address"
        },
        {
          "internalType": "uint256",
          "name": "quantity",
          "type": "uint256"
        }
      ],
      "name": "mint",
      "outputs": [],
      "stateMutability": "payable",
      "type": "function"
    },
    {
      "inputs": [
        {
          "internalType": "address",
          "name": "winnerAddress",
          "type": "address"
        },
        {
          "internalType": "uint256",
          "name": "quantity",
          "type": "uint256"
        }
      ],
      "name": "giveaway",
      "outputs": [],
      "stateMutability": "nonpayable",
      "type": "function"
    },
    {
      "inputs": [
        {
          "internalType": "address",
          "name": "ownerAddress",
          "type": "address"
        }
      ],
      "name": "getAssetsByOwner",
      "outputs": [
        {
          "internalType": "uint256[]",
          "name": "",
          "type": "uint256[]"
        }
      ],
      "stateMutability": "view",
      "type": "function"
    },
    {
      "inputs": [],
      "name": "getMyAssets",
      "outputs": [
        {
          "internalType": "uint256[]",
          "name": "",
          "type": "uint256[]"
        }
      ],
      "stateMutability": "view",
      "type": "function"
    },
    {
      "inputs": [],
      "name": "withdraw",
      "outputs": [],
      "stateMutability": "nonpayable",
      "type": "function"
    },
    {
      "inputs": [],
      "name": "getSaleStatus",
      "outputs": [
        {
          "internalType": "bool",
          "name": "",
          "type": "bool"
        }
      ],
      "stateMutability": "view",
      "type": "function"
    },
    {
      "inputs": [],
      "name": "getBaseURI",
      "outputs": [
        {
          "internalType": "string",
          "name": "",
          "type": "string"
        }
      ],
      "stateMutability": "view",
      "type": "function"
    },
    {
      "inputs": [],
      "name": "getNumberofMintedTokens",
      "outputs": [
        {
          "internalType": "uint256",
          "name": "",
          "type": "uint256"
        }
      ],
      "stateMutability": "view",
      "type": "function"
    },
    {
      "inputs": [
        {
          "internalType": "bool",
          "name": "newSaleStatus",
          "type": "bool"
        }
      ],
      "name": "setSaleStatus",
      "outputs": [],
      "stateMutability": "nonpayable",
      "type": "function"
    },
    {
      "inputs": [
        {
          "internalType": "string",
          "name": "newBaseURI",
          "type": "string"
        }
      ],
      "name": "setBaseUri",
      "outputs": [],
      "stateMutability": "nonpayable",
      "type": "function"
    },
    {
      "inputs": [
        {
          "internalType": "uint256",
          "name": "newPrice",
          "type": "uint256"
        }
      ],
      "name": "setPrice",
      "outputs": [],
      "stateMutability": "nonpayable",
      "type": "function"
    },
    {
      "inputs": [
        {
          "internalType": "uint256",
          "name": "newSupply",
          "type": "uint256"
        }
      ],
      "name": "setTotalSupply",
      "outputs": [],
      "stateMutability": "nonpayable",
      "type": "function"
    },
    {
      "inputs": [
        {
          "internalType": "uint256",
          "name": "newMaxPurchase",
          "type": "uint256"
        }
      ],
      "name": "setMaxPurchase",
      "outputs": [],
      "stateMutability": "nonpayable",
      "type": "function"
    }
  ],
  "bytecode": "0x608060405266753d533d96800060075561271060085560146009556001600a60006101000a81548160ff0219169083151502179055506040518060600160405280602a815260200162004600602a9139600b90805190602001906200006692919062000209565b503480156200007457600080fd5b506040518060400160405280600b81526020017f43727970746f53756974730000000000000000000000000000000000000000008152506040518060400160405280600481526020017f53554954000000000000000000000000000000000000000000000000000000008152508160009080519060200190620000f992919062000209565b5080600190805190602001906200011292919062000209565b50505062000135620001296200013b60201b60201c565b6200014360201b60201c565b6200031e565b600033905090565b6000600660009054906101000a900473ffffffffffffffffffffffffffffffffffffffff16905081600660006101000a81548173ffffffffffffffffffffffffffffffffffffffff021916908373ffffffffffffffffffffffffffffffffffffffff1602179055508173ffffffffffffffffffffffffffffffffffffffff168173ffffffffffffffffffffffffffffffffffffffff167f8be0079c531659141344cd1fd0a4f28419497f9722a3daafe3b4186f6b6457e060405160405180910390a35050565b8280546200021790620002b9565b90600052602060002090601f0160209004810192826200023b576000855562000287565b82601f106200025657805160ff191683800117855562000287565b8280016001018555821562000287579182015b828111156200028657825182559160200191906001019062000269565b5b5090506200029691906200029a565b5090565b5b80821115620002b55760008160009055506001016200029b565b5090565b60006002820490506001821680620002d257607f821691505b60208210811415620002e957620002e8620002ef565b5b50919050565b7f4e487b7100000000000000000000000000000000000000000000000000000000600052602260045260246000fd5b6142d2806200032e6000396000f3fe6080604052600436106101f95760003560e01c8063711897421161010d578063a035b1fe116100a0578063c87b56dd1161006f578063c87b56dd146106ee578063d897833e1461072b578063e985e9c514610754578063f2fde38b14610791578063f7ea7a3d146107ba576101f9565b8063a035b1fe14610648578063a0bcfc7f14610673578063a22cb4651461069c578063b88d4fde146106c5576101f9565b80638da5cb5b116100dc5780638da5cb5b1461059e57806391b7f5ed146105c957806395d89b41146105f2578063977b055b1461061d576101f9565b80637118974214610508578063714c539814610531578063715018a61461055c5780638c3c4b3414610573576101f9565b80632c3c888c1161019057806347002d1d1161015f57806347002d1d1461040d5780635c975abb146104385780636352211e146104635780636c0360eb146104a057806370a08231146104cb576101f9565b80632c3c888c146103865780633ccfd60b146103b157806340c10f19146103c857806342842e0e146103e4576101f9565b8063095ea7b3116101cc578063095ea7b3146102cc57806318160ddd146102f557806323b872dd14610320578063276f093414610349576101f9565b806301ffc9a7146101fe578063050225ea1461023b57806306fdde0314610264578063081812fc1461028f575b600080fd5b34801561020a57600080fd5b5061022560048036038101906102209190612d7e565b6107e3565b60405161023291906133cf565b60405180910390f35b34801561024757600080fd5b50610262600480360381019061025d9190612d11565b6108c5565b005b34801561027057600080fd5b50610279610ad8565b60405161028691906133ea565b60405180910390f35b34801561029b57600080fd5b506102b660048036038101906102b19190612e21565b610b6a565b6040516102c3919061330f565b60405180910390f35b3480156102d857600080fd5b506102f360048036038101906102ee9190612d11565b610bef565b005b34801561030157600080fd5b5061030a610d07565b604051610317919061370c565b60405180910390f35b34801561032c57600080fd5b5061034760048036038101906103429190612bfb565b610d0d565b005b34801561035557600080fd5b50610370600480360381019061036b9190612b8e565b610d6d565b60405161037d91906133ad565b60405180910390f35b34801561039257600080fd5b5061039b610eda565b6040516103a8919061370c565b60405180910390f35b3480156103bd57600080fd5b506103c6610eeb565b005b6103e260048036038101906103dd9190612d11565b610fb0565b005b3480156103f057600080fd5b5061040b60048036038101906104069190612bfb565b611233565b005b34801561041957600080fd5b50610422611253565b60405161042f91906133ad565b60405180910390f35b34801561044457600080fd5b5061044d611263565b60405161045a91906133cf565b60405180910390f35b34801561046f57600080fd5b5061048a60048036038101906104859190612e21565b611276565b604051610497919061330f565b60405180910390f35b3480156104ac57600080fd5b506104b5611328565b6040516104c291906133ea565b60405180910390f35b3480156104d757600080fd5b506104f260048036038101906104ed9190612b8e565b6113b6565b6040516104ff919061370c565b60405180910390f35b34801561051457600080fd5b5061052f600480360381019061052a9190612e21565b61146e565b005b34801561053d57600080fd5b506105466114f4565b60405161055391906133ea565b60405180910390f35b34801561056857600080fd5b50610571611586565b005b34801561057f57600080fd5b5061058861160e565b60405161059591906133cf565b60405180910390f35b3480156105aa57600080fd5b506105b3611625565b6040516105c0919061330f565b60405180910390f35b3480156105d557600080fd5b506105f060048036038101906105eb9190612e21565b61164f565b005b3480156105fe57600080fd5b506106076116d5565b60405161061491906133ea565b60405180910390f35b34801561062957600080fd5b50610632611767565b60405161063f919061370c565b60405180910390f35b34801561065457600080fd5b5061065d61176d565b60405161066a919061370c565b60405180910390f35b34801561067f57600080fd5b5061069a60048036038101906106959190612dd8565b611773565b005b3480156106a857600080fd5b506106c360048036038101906106be9190612cd1565b611809565b005b3480156106d157600080fd5b506106ec60048036038101906106e79190612c4e565b61198a565b005b3480156106fa57600080fd5b5061071560048036038101906107109190612e21565b6119ec565b60405161072291906133ea565b60405180910390f35b34801561073757600080fd5b50610752600480360381019061074d9190612d51565b611a93565b005b34801561076057600080fd5b5061077b60048036038101906107769190612bbb565b611b64565b60405161078891906133cf565b60405180910390f35b34801561079d57600080fd5b506107b860048036038101906107b39190612b8e565b611bf8565b005b3480156107c657600080fd5b506107e160048036038101906107dc9190612e21565b611cf0565b005b60007f80ac58cd000000000000000000000000000000000000000000000000000000007bffffffffffffffffffffffffffffffffffffffffffffffffffffffff1916827bffffffffffffffffffffffffffffffffffffffffffffffffffffffff191614806108ae57507f5b5e139f000000000000000000000000000000000000000000000000000000007bffffffffffffffffffffffffffffffffffffffffffffffffffffffff1916827bffffffffffffffffffffffffffffffffffffffffffffffffffffffff1916145b806108be57506108bd82611d76565b5b9050919050565b6108cd611de0565b73ffffffffffffffffffffffffffffffffffffffff166108eb611625565b73ffffffffffffffffffffffffffffffffffffffff1614610941576040517f08c379a0000000000000000000000000000000000000000000000000000000008152600401610938906135cc565b60405180910390fd5b60085461096082610952600c611de8565b611df690919063ffffffff16565b11156109a1576040517f08c379a00000000000000000000000000000000000000000000000000000000081526004016109989061368c565b60405180910390fd5b600073ffffffffffffffffffffffffffffffffffffffff168273ffffffffffffffffffffffffffffffffffffffff161415610a11576040517f08c379a0000000000000000000000000000000000000000000000000000000008152600401610a08906136cc565b60405180910390fd5b60008111610a54576040517f08c379a0000000000000000000000000000000000000000000000000000000008152600401610a4b9061366c565b60405180910390fd5b60005b81811015610ad357610a69600c611e0c565b610a7c83610a77600c611de8565b611e22565b7fecc66049063d141543db69c222724d8bdc0fe299cdaafe5ca7517fd25014d8ef3384610aa9600c611de8565b604051610ab89392919061332a565b60405180910390a18080610acb90613a58565b915050610a57565b505050565b606060008054610ae7906139f5565b80601f0160208091040260200160405190810160405280929190818152602001828054610b13906139f5565b8015610b605780601f10610b3557610100808354040283529160200191610b60565b820191906000526020600020905b815481529060010190602001808311610b4357829003601f168201915b5050505050905090565b6000610b7582611e40565b610bb4576040517f08c379a0000000000000000000000000000000000000000000000000000000008152600401610bab906135ac565b60405180910390fd5b6004600083815260200190815260200160002060009054906101000a900473ffffffffffffffffffffffffffffffffffffffff169050919050565b6000610bfa82611276565b90508073ffffffffffffffffffffffffffffffffffffffff168373ffffffffffffffffffffffffffffffffffffffff161415610c6b576040517f08c379a0000000000000000000000000000000000000000000000000000000008152600401610c629061364c565b60405180910390fd5b8073ffffffffffffffffffffffffffffffffffffffff16610c8a611de0565b73ffffffffffffffffffffffffffffffffffffffff161480610cb95750610cb881610cb3611de0565b611b64565b5b610cf8576040517f08c379a0000000000000000000000000000000000000000000000000000000008152600401610cef9061352c565b60405180910390fd5b610d028383611eac565b505050565b60085481565b610d1e610d18611de0565b82611f65565b610d5d576040517f08c379a0000000000000000000000000000000000000000000000000000000008152600401610d54906136ac565b60405180910390fd5b610d68838383612043565b505050565b60606000610d7a836113b6565b90506000811415610dd757600067ffffffffffffffff811115610da057610d9f613b8e565b5b604051908082528060200260200182016040528015610dce5781602001602082028036833780820191505090505b50915050610ed5565b60008167ffffffffffffffff811115610df357610df2613b8e565b5b604051908082528060200260200182016040528015610e215781602001602082028036833780820191505090505b5090506000610e30600c611de8565b90506000805b828111610ecc57610e4681611e40565b8015610e8557508673ffffffffffffffffffffffffffffffffffffffff16610e6d82611276565b73ffffffffffffffffffffffffffffffffffffffff16145b15610eb95780848381518110610e9e57610e9d613b5f565b5b6020026020010181815250508180610eb590613a58565b9250505b8080610ec490613a58565b915050610e36565b50829450505050505b919050565b6000610ee6600c611de8565b905090565b610ef3611de0565b73ffffffffffffffffffffffffffffffffffffffff16610f11611625565b73ffffffffffffffffffffffffffffffffffffffff1614610f67576040517f08c379a0000000000000000000000000000000000000000000000000000000008152600401610f5e906135cc565b60405180910390fd5b3373ffffffffffffffffffffffffffffffffffffffff166108fc479081150290604051600060405180830381858888f19350505050158015610fad573d6000803e3d6000fd5b50565b600a60009054906101000a900460ff1615611000576040517f08c379a0000000000000000000000000000000000000000000000000000000008152600401610ff79061362c565b60405180910390fd5b600073ffffffffffffffffffffffffffffffffffffffff168273ffffffffffffffffffffffffffffffffffffffff161415611070576040517f08c379a0000000000000000000000000000000000000000000000000000000008152600401611067906136ec565b60405180910390fd5b600081116110b3576040517f08c379a00000000000000000000000000000000000000000000000000000000081526004016110aa9061340c565b60405180910390fd5b6009548111156110f8576040517f08c379a00000000000000000000000000000000000000000000000000000000081526004016110ef906134cc565b60405180910390fd5b60085461111782611109600c611de8565b611df690919063ffffffff16565b1115611158576040517f08c379a000000000000000000000000000000000000000000000000000000000815260040161114f9061368c565b60405180910390fd5b3461116e8260075461229f90919063ffffffff16565b11156111af576040517f08c379a00000000000000000000000000000000000000000000000000000000081526004016111a69061350c565b60405180910390fd5b60005b8181101561122e576111c4600c611e0c565b6111d7836111d2600c611de8565b611e22565b7fab8530f87dc9b59234c4623bf917212bb2536d647574c8e7e5da92c2ede0c9f83384611204600c611de8565b6040516112139392919061332a565b60405180910390a1808061122690613a58565b9150506111b2565b505050565b61124e8383836040518060200160405280600081525061198a565b505050565b606061125e32610d6d565b905090565b600a60009054906101000a900460ff1681565b6000806002600084815260200190815260200160002060009054906101000a900473ffffffffffffffffffffffffffffffffffffffff169050600073ffffffffffffffffffffffffffffffffffffffff168173ffffffffffffffffffffffffffffffffffffffff16141561131f576040517f08c379a00000000000000000000000000000000000000000000000000000000081526004016113169061356c565b60405180910390fd5b80915050919050565b600b8054611335906139f5565b80601f0160208091040260200160405190810160405280929190818152602001828054611361906139f5565b80156113ae5780601f10611383576101008083540402835291602001916113ae565b820191906000526020600020905b81548152906001019060200180831161139157829003601f168201915b505050505081565b60008073ffffffffffffffffffffffffffffffffffffffff168273ffffffffffffffffffffffffffffffffffffffff161415611427576040517f08c379a000000000000000000000000000000000000000000000000000000000815260040161141e9061354c565b60405180910390fd5b600360008373ffffffffffffffffffffffffffffffffffffffff1673ffffffffffffffffffffffffffffffffffffffff168152602001908152602001600020549050919050565b611476611de0565b73ffffffffffffffffffffffffffffffffffffffff16611494611625565b73ffffffffffffffffffffffffffffffffffffffff16146114ea576040517f08c379a00000000000000000000000000000000000000000000000000000000081526004016114e1906135cc565b60405180910390fd5b8060098190555050565b6060600b8054611503906139f5565b80601f016020809104026020016040519081016040528092919081815260200182805461152f906139f5565b801561157c5780601f106115515761010080835404028352916020019161157c565b820191906000526020600020905b81548152906001019060200180831161155f57829003601f168201915b5050505050905090565b61158e611de0565b73ffffffffffffffffffffffffffffffffffffffff166115ac611625565b73ffffffffffffffffffffffffffffffffffffffff1614611602576040517f08c379a00000000000000000000000000000000000000000000000000000000081526004016115f9906135cc565b60405180910390fd5b61160c60006122b5565b565b6000600a60009054906101000a900460ff16905090565b6000600660009054906101000a900473ffffffffffffffffffffffffffffffffffffffff16905090565b611657611de0565b73ffffffffffffffffffffffffffffffffffffffff16611675611625565b73ffffffffffffffffffffffffffffffffffffffff16146116cb576040517f08c379a00000000000000000000000000000000000000000000000000000000081526004016116c2906135cc565b60405180910390fd5b8060078190555050565b6060600180546116e4906139f5565b80601f0160208091040260200160405190810160405280929190818152602001828054611710906139f5565b801561175d5780601f106117325761010080835404028352916020019161175d565b820191906000526020600020905b81548152906001019060200180831161174057829003601f168201915b5050505050905090565b60095481565b60075481565b61177b611de0565b73ffffffffffffffffffffffffffffffffffffffff16611799611625565b73ffffffffffffffffffffffffffffffffffffffff16146117ef576040517f08c379a00000000000000000000000000000000000000000000000000000000081526004016117e6906135cc565b60405180910390fd5b80600b90805190602001906118059291906129a2565b5050565b611811611de0565b73ffffffffffffffffffffffffffffffffffffffff168273ffffffffffffffffffffffffffffffffffffffff16141561187f576040517f08c379a0000000000000000000000000000000000000000000000000000000008152600401611876906134ac565b60405180910390fd5b806005600061188c611de0565b73ffffffffffffffffffffffffffffffffffffffff1673ffffffffffffffffffffffffffffffffffffffff16815260200190815260200160002060008473ffffffffffffffffffffffffffffffffffffffff1673ffffffffffffffffffffffffffffffffffffffff16815260200190815260200160002060006101000a81548160ff0219169083151502179055508173ffffffffffffffffffffffffffffffffffffffff16611939611de0565b73ffffffffffffffffffffffffffffffffffffffff167f17307eab39ab6107e8899845ad3d59bd9653f200f220920489ca2b5937696c318360405161197e91906133cf565b60405180910390a35050565b61199b611995611de0565b83611f65565b6119da576040517f08c379a00000000000000000000000000000000000000000000000000000000081526004016119d1906136ac565b60405180910390fd5b6119e68484848461237b565b50505050565b60606119f782611e40565b611a36576040517f08c379a0000000000000000000000000000000000000000000000000000000008152600401611a2d9061360c565b60405180910390fd5b6000611a406123d7565b90506000815111611a605760405180602001604052806000815250611a8b565b80611a6a84612469565b604051602001611a7b9291906132eb565b6040516020818303038152906040525b915050919050565b611a9b611de0565b73ffffffffffffffffffffffffffffffffffffffff16611ab9611625565b73ffffffffffffffffffffffffffffffffffffffff1614611b0f576040517f08c379a0000000000000000000000000000000000000000000000000000000008152600401611b06906135cc565b60405180910390fd5b80600a60006101000a81548160ff0219169083151502179055507f7c88cd5705b17da0853ab081ee5a1690e33ea803e30bf9f4b8245924210fc0a88115604051611b5991906133cf565b60405180910390a150565b6000600560008473ffffffffffffffffffffffffffffffffffffffff1673ffffffffffffffffffffffffffffffffffffffff16815260200190815260200160002060008373ffffffffffffffffffffffffffffffffffffffff1673ffffffffffffffffffffffffffffffffffffffff16815260200190815260200160002060009054906101000a900460ff16905092915050565b611c00611de0565b73ffffffffffffffffffffffffffffffffffffffff16611c1e611625565b73ffffffffffffffffffffffffffffffffffffffff1614611c74576040517f08c379a0000000000000000000000000000000000000000000000000000000008152600401611c6b906135cc565b60405180910390fd5b600073ffffffffffffffffffffffffffffffffffffffff168173ffffffffffffffffffffffffffffffffffffffff161415611ce4576040517f08c379a0000000000000000000000000000000000000000000000000000000008152600401611cdb9061344c565b60405180910390fd5b611ced816122b5565b50565b611cf8611de0565b73ffffffffffffffffffffffffffffffffffffffff16611d16611625565b73ffffffffffffffffffffffffffffffffffffffff1614611d6c576040517f08c379a0000000000000000000000000000000000000000000000000000000008152600401611d63906135cc565b60405180910390fd5b8060088190555050565b60007f01ffc9a7000000000000000000000000000000000000000000000000000000007bffffffffffffffffffffffffffffffffffffffffffffffffffffffff1916827bffffffffffffffffffffffffffffffffffffffffffffffffffffffff1916149050919050565b600033905090565b600081600001549050919050565b60008183611e04919061382a565b905092915050565b6001816000016000828254019250508190555050565b611e3c8282604051806020016040528060008152506125ca565b5050565b60008073ffffffffffffffffffffffffffffffffffffffff166002600084815260200190815260200160002060009054906101000a900473ffffffffffffffffffffffffffffffffffffffff1673ffffffffffffffffffffffffffffffffffffffff1614159050919050565b816004600083815260200190815260200160002060006101000a81548173ffffffffffffffffffffffffffffffffffffffff021916908373ffffffffffffffffffffffffffffffffffffffff160217905550808273ffffffffffffffffffffffffffffffffffffffff16611f1f83611276565b73ffffffffffffffffffffffffffffffffffffffff167f8c5be1e5ebec7d5bd14f71427d1e84f3dd0314c0f7b2291e5b200ac8c7c3b92560405160405180910390a45050565b6000611f7082611e40565b611faf576040517f08c379a0000000000000000000000000000000000000000000000000000000008152600401611fa6906134ec565b60405180910390fd5b6000611fba83611276565b90508073ffffffffffffffffffffffffffffffffffffffff168473ffffffffffffffffffffffffffffffffffffffff16148061202957508373ffffffffffffffffffffffffffffffffffffffff1661201184610b6a565b73ffffffffffffffffffffffffffffffffffffffff16145b8061203a57506120398185611b64565b5b91505092915050565b8273ffffffffffffffffffffffffffffffffffffffff1661206382611276565b73ffffffffffffffffffffffffffffffffffffffff16146120b9576040517f08c379a00000000000000000000000000000000000000000000000000000000081526004016120b0906135ec565b60405180910390fd5b600073ffffffffffffffffffffffffffffffffffffffff168273ffffffffffffffffffffffffffffffffffffffff161415612129576040517f08c379a00000000000000000000000000000000000000000000000000000000081526004016121209061348c565b60405180910390fd5b612134838383612625565b61213f600082611eac565b6001600360008573ffffffffffffffffffffffffffffffffffffffff1673ffffffffffffffffffffffffffffffffffffffff168152602001908152602001600020600082825461218f919061390b565b925050819055506001600360008473ffffffffffffffffffffffffffffffffffffffff1673ffffffffffffffffffffffffffffffffffffffff16815260200190815260200160002060008282546121e6919061382a565b92505081905550816002600083815260200190815260200160002060006101000a81548173ffffffffffffffffffffffffffffffffffffffff021916908373ffffffffffffffffffffffffffffffffffffffff160217905550808273ffffffffffffffffffffffffffffffffffffffff168473ffffffffffffffffffffffffffffffffffffffff167fddf252ad1be2c89b69c2b068fc378daa952ba7f163c4a11628f55a4df523b3ef60405160405180910390a4505050565b600081836122ad91906138b1565b905092915050565b6000600660009054906101000a900473ffffffffffffffffffffffffffffffffffffffff16905081600660006101000a81548173ffffffffffffffffffffffffffffffffffffffff021916908373ffffffffffffffffffffffffffffffffffffffff1602179055508173ffffffffffffffffffffffffffffffffffffffff168173ffffffffffffffffffffffffffffffffffffffff167f8be0079c531659141344cd1fd0a4f28419497f9722a3daafe3b4186f6b6457e060405160405180910390a35050565b612386848484612043565b6123928484848461262a565b6123d1576040517f08c379a00000000000000000000000000000000000000000000000000000000081526004016123c89061342c565b60405180910390fd5b50505050565b6060600b80546123e6906139f5565b80601f0160208091040260200160405190810160405280929190818152602001828054612412906139f5565b801561245f5780601f106124345761010080835404028352916020019161245f565b820191906000526020600020905b81548152906001019060200180831161244257829003601f168201915b5050505050905090565b606060008214156124b1576040518060400160405280600181526020017f300000000000000000000000000000000000000000000000000000000000000081525090506125c5565b600082905060005b600082146124e35780806124cc90613a58565b915050600a826124dc9190613880565b91506124b9565b60008167ffffffffffffffff8111156124ff576124fe613b8e565b5b6040519080825280601f01601f1916602001820160405280156125315781602001600182028036833780820191505090505b5090505b600085146125be5760018261254a919061390b565b9150600a856125599190613aa1565b6030612565919061382a565b60f81b81838151811061257b5761257a613b5f565b5b60200101907effffffffffffffffffffffffffffffffffffffffffffffffffffffffffffff1916908160001a905350600a856125b79190613880565b9450612535565b8093505050505b919050565b6125d483836127c1565b6125e1600084848461262a565b612620576040517f08c379a00000000000000000000000000000000000000000000000000000000081526004016126179061342c565b60405180910390fd5b505050565b505050565b600061264b8473ffffffffffffffffffffffffffffffffffffffff1661298f565b156127b4578373ffffffffffffffffffffffffffffffffffffffff1663150b7a02612674611de0565b8786866040518563ffffffff1660e01b81526004016126969493929190613361565b602060405180830381600087803b1580156126b057600080fd5b505af19250505080156126e157506040513d601f19601f820116820180604052508101906126de9190612dab565b60015b612764573d8060008114612711576040519150601f19603f3d011682016040523d82523d6000602084013e612716565b606091505b5060008151141561275c576040517f08c379a00000000000000000000000000000000000000000000000000000000081526004016127539061342c565b60405180910390fd5b805181602001fd5b63150b7a0260e01b7bffffffffffffffffffffffffffffffffffffffffffffffffffffffff1916817bffffffffffffffffffffffffffffffffffffffffffffffffffffffff1916149150506127b9565b600190505b949350505050565b600073ffffffffffffffffffffffffffffffffffffffff168273ffffffffffffffffffffffffffffffffffffffff161415612831576040517f08c379a00000000000000000000000000000000000000000000000000000000081526004016128289061358c565b60405180910390fd5b61283a81611e40565b1561287a576040517f08c379a00000000000000000000000000000000000000000000000000000000081526004016128719061346c565b60405180910390fd5b61288660008383612625565b6001600360008473ffffffffffffffffffffffffffffffffffffffff1673ffffffffffffffffffffffffffffffffffffffff16815260200190815260200160002060008282546128d6919061382a565b92505081905550816002600083815260200190815260200160002060006101000a81548173ffffffffffffffffffffffffffffffffffffffff021916908373ffffffffffffffffffffffffffffffffffffffff160217905550808273ffffffffffffffffffffffffffffffffffffffff16600073ffffffffffffffffffffffffffffffffffffffff167fddf252ad1be2c89b69c2b068fc378daa952ba7f163c4a11628f55a4df523b3ef60405160405180910390a45050565b600080823b905060008111915050919050565b8280546129ae906139f5565b90600052602060002090601f0160209004810192826129d05760008555612a17565b82601f106129e957805160ff1916838001178555612a17565b82800160010185558215612a17579182015b82811115612a165782518255916020019190600101906129fb565b5b509050612a249190612a28565b5090565b5b80821115612a41576000816000905550600101612a29565b5090565b6000612a58612a538461374c565b613727565b905082815260208101848484011115612a7457612a73613bc2565b5b612a7f8482856139b3565b509392505050565b6000612a9a612a958461377d565b613727565b905082815260208101848484011115612ab657612ab5613bc2565b5b612ac18482856139b3565b509392505050565b600081359050612ad881614240565b92915050565b600081359050612aed81614257565b92915050565b600081359050612b028161426e565b92915050565b600081519050612b178161426e565b92915050565b600082601f830112612b3257612b31613bbd565b5b8135612b42848260208601612a45565b91505092915050565b600082601f830112612b6057612b5f613bbd565b5b8135612b70848260208601612a87565b91505092915050565b600081359050612b8881614285565b92915050565b600060208284031215612ba457612ba3613bcc565b5b6000612bb284828501612ac9565b91505092915050565b60008060408385031215612bd257612bd1613bcc565b5b6000612be085828601612ac9565b9250506020612bf185828601612ac9565b9150509250929050565b600080600060608486031215612c1457612c13613bcc565b5b6000612c2286828701612ac9565b9350506020612c3386828701612ac9565b9250506040612c4486828701612b79565b9150509250925092565b60008060008060808587031215612c6857612c67613bcc565b5b6000612c7687828801612ac9565b9450506020612c8787828801612ac9565b9350506040612c9887828801612b79565b925050606085013567ffffffffffffffff811115612cb957612cb8613bc7565b5b612cc587828801612b1d565b91505092959194509250565b60008060408385031215612ce857612ce7613bcc565b5b6000612cf685828601612ac9565b9250506020612d0785828601612ade565b9150509250929050565b60008060408385031215612d2857612d27613bcc565b5b6000612d3685828601612ac9565b9250506020612d4785828601612b79565b9150509250929050565b600060208284031215612d6757612d66613bcc565b5b6000612d7584828501612ade565b91505092915050565b600060208284031215612d9457612d93613bcc565b5b6000612da284828501612af3565b91505092915050565b600060208284031215612dc157612dc0613bcc565b5b6000612dcf84828501612b08565b91505092915050565b600060208284031215612dee57612ded613bcc565b5b600082013567ffffffffffffffff811115612e0c57612e0b613bc7565b5b612e1884828501612b4b565b91505092915050565b600060208284031215612e3757612e36613bcc565b5b6000612e4584828501612b79565b91505092915050565b6000612e5a83836132cd565b60208301905092915050565b612e6f8161393f565b82525050565b6000612e80826137be565b612e8a81856137ec565b9350612e95836137ae565b8060005b83811015612ec6578151612ead8882612e4e565b9750612eb8836137df565b925050600181019050612e99565b5085935050505092915050565b612edc81613951565b82525050565b6000612eed826137c9565b612ef781856137fd565b9350612f078185602086016139c2565b612f1081613bd1565b840191505092915050565b6000612f26826137d4565b612f30818561380e565b9350612f408185602086016139c2565b612f4981613bd1565b840191505092915050565b6000612f5f826137d4565b612f69818561381f565b9350612f798185602086016139c2565b80840191505092915050565b6000612f9260298361380e565b9150612f9d82613be2565b604082019050919050565b6000612fb560328361380e565b9150612fc082613c31565b604082019050919050565b6000612fd860268361380e565b9150612fe382613c80565b604082019050919050565b6000612ffb601c8361380e565b915061300682613ccf565b602082019050919050565b600061301e60248361380e565b915061302982613cf8565b604082019050919050565b600061304160198361380e565b915061304c82613d47565b602082019050919050565b6000613064603f8361380e565b915061306f82613d70565b604082019050919050565b6000613087602c8361380e565b915061309282613dbf565b604082019050919050565b60006130aa601f8361380e565b91506130b582613e0e565b602082019050919050565b60006130cd60388361380e565b91506130d882613e37565b604082019050919050565b60006130f0602a8361380e565b91506130fb82613e86565b604082019050919050565b600061311360298361380e565b915061311e82613ed5565b604082019050919050565b600061313660208361380e565b915061314182613f24565b602082019050919050565b6000613159602c8361380e565b915061316482613f4d565b604082019050919050565b600061317c60208361380e565b915061318782613f9c565b602082019050919050565b600061319f60298361380e565b91506131aa82613fc5565b604082019050919050565b60006131c2602f8361380e565b91506131cd82614014565b604082019050919050565b60006131e5601c8361380e565b91506131f082614063565b602082019050919050565b600061320860218361380e565b91506132138261408c565b604082019050919050565b600061322b60278361380e565b9150613236826140db565b604082019050919050565b600061324e60198361380e565b91506132598261412a565b602082019050919050565b600061327160318361380e565b915061327c82614153565b604082019050919050565b600061329460268361380e565b915061329f826141a2565b604082019050919050565b60006132b760228361380e565b91506132c2826141f1565b604082019050919050565b6132d6816139a9565b82525050565b6132e5816139a9565b82525050565b60006132f78285612f54565b91506133038284612f54565b91508190509392505050565b60006020820190506133246000830184612e66565b92915050565b600060608201905061333f6000830186612e66565b61334c6020830185612e66565b61335960408301846132dc565b949350505050565b60006080820190506133766000830187612e66565b6133836020830186612e66565b61339060408301856132dc565b81810360608301526133a28184612ee2565b905095945050505050565b600060208201905081810360008301526133c78184612e75565b905092915050565b60006020820190506133e46000830184612ed3565b92915050565b600060208201905081810360008301526134048184612f1b565b905092915050565b6000602082019050818103600083015261342581612f85565b9050919050565b6000602082019050818103600083015261344581612fa8565b9050919050565b6000602082019050818103600083015261346581612fcb565b9050919050565b6000602082019050818103600083015261348581612fee565b9050919050565b600060208201905081810360008301526134a581613011565b9050919050565b600060208201905081810360008301526134c581613034565b9050919050565b600060208201905081810360008301526134e581613057565b9050919050565b600060208201905081810360008301526135058161307a565b9050919050565b600060208201905081810360008301526135258161309d565b9050919050565b60006020820190508181036000830152613545816130c0565b9050919050565b60006020820190508181036000830152613565816130e3565b9050919050565b6000602082019050818103600083015261358581613106565b9050919050565b600060208201905081810360008301526135a581613129565b9050919050565b600060208201905081810360008301526135c58161314c565b9050919050565b600060208201905081810360008301526135e58161316f565b9050919050565b6000602082019050818103600083015261360581613192565b9050919050565b60006020820190508181036000830152613625816131b5565b9050919050565b60006020820190508181036000830152613645816131d8565b9050919050565b60006020820190508181036000830152613665816131fb565b9050919050565b600060208201905081810360008301526136858161321e565b9050919050565b600060208201905081810360008301526136a581613241565b9050919050565b600060208201905081810360008301526136c581613264565b9050919050565b600060208201905081810360008301526136e581613287565b9050919050565b60006020820190508181036000830152613705816132aa565b9050919050565b600060208201905061372160008301846132dc565b92915050565b6000613731613742565b905061373d8282613a27565b919050565b6000604051905090565b600067ffffffffffffffff82111561376757613766613b8e565b5b61377082613bd1565b9050602081019050919050565b600067ffffffffffffffff82111561379857613797613b8e565b5b6137a182613bd1565b9050602081019050919050565b6000819050602082019050919050565b600081519050919050565b600081519050919050565b600081519050919050565b6000602082019050919050565b600082825260208201905092915050565b600082825260208201905092915050565b600082825260208201905092915050565b600081905092915050565b6000613835826139a9565b9150613840836139a9565b9250827fffffffffffffffffffffffffffffffffffffffffffffffffffffffffffffffff0382111561387557613874613ad2565b5b828201905092915050565b600061388b826139a9565b9150613896836139a9565b9250826138a6576138a5613b01565b5b828204905092915050565b60006138bc826139a9565b91506138c7836139a9565b9250817fffffffffffffffffffffffffffffffffffffffffffffffffffffffffffffffff0483118215151615613900576138ff613ad2565b5b828202905092915050565b6000613916826139a9565b9150613921836139a9565b92508282101561393457613933613ad2565b5b828203905092915050565b600061394a82613989565b9050919050565b60008115159050919050565b60007fffffffff0000000000000000000000000000000000000000000000000000000082169050919050565b600073ffffffffffffffffffffffffffffffffffffffff82169050919050565b6000819050919050565b82818337600083830152505050565b60005b838110156139e05780820151818401526020810190506139c5565b838111156139ef576000848401525b50505050565b60006002820490506001821680613a0d57607f821691505b60208210811415613a2157613a20613b30565b5b50919050565b613a3082613bd1565b810181811067ffffffffffffffff82111715613a4f57613a4e613b8e565b5b80604052505050565b6000613a63826139a9565b91507fffffffffffffffffffffffffffffffffffffffffffffffffffffffffffffffff821415613a9657613a95613ad2565b5b600182019050919050565b6000613aac826139a9565b9150613ab7836139a9565b925082613ac757613ac6613b01565b5b828206905092915050565b7f4e487b7100000000000000000000000000000000000000000000000000000000600052601160045260246000fd5b7f4e487b7100000000000000000000000000000000000000000000000000000000600052601260045260246000fd5b7f4e487b7100000000000000000000000000000000000000000000000000000000600052602260045260246000fd5b7f4e487b7100000000000000000000000000000000000000000000000000000000600052603260045260246000fd5b7f4e487b7100000000000000000000000000000000000000000000000000000000600052604160045260246000fd5b600080fd5b600080fd5b600080fd5b600080fd5b6000601f19601f8301169050919050565b7f596f75206e65656420746f20627579206174206c65617374203120437279707460008201527f6f53756974204e46540000000000000000000000000000000000000000000000602082015250565b7f4552433732313a207472616e7366657220746f206e6f6e20455243373231526560008201527f63656976657220696d706c656d656e7465720000000000000000000000000000602082015250565b7f4f776e61626c653a206e6577206f776e657220697320746865207a65726f206160008201527f6464726573730000000000000000000000000000000000000000000000000000602082015250565b7f4552433732313a20746f6b656e20616c7265616479206d696e74656400000000600082015250565b7f4552433732313a207472616e7366657220746f20746865207a65726f2061646460008201527f7265737300000000000000000000000000000000000000000000000000000000602082015250565b7f4552433732313a20617070726f766520746f2063616c6c657200000000000000600082015250565b7f596f752063616e2774206275792074686174206d75636820746f6b656e73206960008201527f6e2061207472616e73616374696f6e20286d6178696d756d2069732032302900602082015250565b7f4552433732313a206f70657261746f7220717565727920666f72206e6f6e657860008201527f697374656e7420746f6b656e0000000000000000000000000000000000000000602082015250565b7f57726f6e672070726963652c20646f6e2774206675636b2061726f756e642100600082015250565b7f4552433732313a20617070726f76652063616c6c6572206973206e6f74206f7760008201527f6e6572206e6f7220617070726f76656420666f7220616c6c0000000000000000602082015250565b7f4552433732313a2062616c616e636520717565727920666f7220746865207a6560008201527f726f206164647265737300000000000000000000000000000000000000000000602082015250565b7f4552433732313a206f776e657220717565727920666f72206e6f6e657869737460008201527f656e7420746f6b656e0000000000000000000000000000000000000000000000602082015250565b7f4552433732313a206d696e7420746f20746865207a65726f2061646472657373600082015250565b7f4552433732313a20617070726f76656420717565727920666f72206e6f6e657860008201527f697374656e7420746f6b656e0000000000000000000000000000000000000000602082015250565b7f4f776e61626c653a2063616c6c6572206973206e6f7420746865206f776e6572600082015250565b7f4552433732313a207472616e73666572206f6620746f6b656e2074686174206960008201527f73206e6f74206f776e0000000000000000000000000000000000000000000000602082015250565b7f4552433732314d657461646174613a2055524920717565727920666f72206e6f60008201527f6e6578697374656e7420746f6b656e0000000000000000000000000000000000602082015250565b7f5468652073616c6520686173206e6f7420737461727465642079657400000000600082015250565b7f4552433732313a20617070726f76616c20746f2063757272656e74206f776e6560008201527f7200000000000000000000000000000000000000000000000000000000000000602082015250565b7f596f75206e65656420746f2073706563696679206120706f736974697665207160008201527f75616e7469747900000000000000000000000000000000000000000000000000602082015250565b7f45786365656e64696e67206d6178696d756d20737570706c7900000000000000600082015250565b7f4552433732313a207472616e736665722063616c6c6572206973206e6f74206f60008201527f776e6572206e6f7220617070726f766564000000000000000000000000000000602082015250565b7f596f752063616e277420676976656177617920746f20746865207a65726f206160008201527f6464726573730000000000000000000000000000000000000000000000000000602082015250565b7f596f752063616e2774206d696e7420746f20746865207a65726f20616464726560008201527f7373000000000000000000000000000000000000000000000000000000000000602082015250565b6142498161393f565b811461425457600080fd5b50565b61426081613951565b811461426b57600080fd5b50565b6142778161395d565b811461428257600080fd5b50565b61428e816139a9565b811461429957600080fd5b5056fea2646970667358221220b2d43a260a346d819cbad21beb5d1d8c23c3e3bc514bcd0eec5a9a1e5446fbe764736f6c6343000807003368747470733a2f2f63727970746f737569742d6170692e6865726f6b756170702e636f6d2f6a736f6e2f",
  "immutableReferences": {},
  "source": "// SPDX-License-Identifier: MIT\n// CryptoSuits NFT\npragma solidity ^0.8.0;\n\nimport \"@openzeppelin/contracts/token/ERC721/ERC721.sol\";\nimport \"@openzeppelin/contracts/access/Ownable.sol\";\n\nimport \"@openzeppelin/contracts/utils/Counters.sol\";\nimport '@openzeppelin/contracts/utils/math/SafeMath.sol';\n\ncontract CryptoSuits is ERC721, Ownable {\n    using Counters for Counters.Counter;\n    using SafeMath for uint256;\n\n    /* CONSTANTS */\n    // Price of a CryptoSuit NFT\n    uint256 public price = 0.033 ether;\n\n    // Number of NFT available to mint\n    uint256 public totalSupply = 10000;\n\n    // Maximum purchase of NFT in one transaction\n    uint256 public maxPurchase = 20;\n\n\n    /* VARIABLES */\n    // Status of the sale (if paused, the sale has not started yet)\n    bool public paused = true;\n\n    // Base URI of the backend server\n    string public baseURI = 'https://cryptosuit-api.herokuapp.com/json/';\n\n    // Counter of the number of CryptoSuits token minted\n    Counters.Counter private _tokenIds;\n\n\n    /* EVENTS */\n    event SaleStarted(bool started);\n    event Withdraw(uint256 amount);\n    event Mint(address minterAddress, address buyerAddress, uint256 tokenId);\n    event GiveAway(address minterAddress, address winnerAddress, uint256 tokenId);\n\n\n    /* CONSTRUCTOR */\n    constructor() ERC721(\"CryptoSuits\", \"SUIT\") {}\n\n\n    /* FUNCTIONS */\n    // Mint some CryptoSuits NFT\n    function mint(address buyerAddress, uint256 quantity) public payable {\n        // Check that the sale has started\n        require(!paused, \"The sale has not started yet\");\n\n        // Check that the buyerAddress is not 0x0\n        require(buyerAddress != address(0), \"You can't mint to the zero address\");\n\n        // Check that the 0 < quantity <= maxPurchase\n        require(quantity > 0, \"You need to buy at least 1 CryptoSuit NFT\");\n        require(quantity <= maxPurchase, \"You can't buy that much tokens in a transaction (maximum is 20)\");\n        \n        // Check that there are enough NFT left to mint\n        require(_tokenIds.current().add(quantity) <= totalSupply, \"Exceending maximum supply\");\n\n        // Check that the price is correct\n        require(price.mul(quantity) <= msg.value, \"Wrong price, don't fuck around!\");\n        \n        // Mint some NFTs\n        for (uint256 i = 0; i < quantity; i++) {\n            _tokenIds.increment();\n            _safeMint(buyerAddress, _tokenIds.current());\n            emit Mint(msg.sender, buyerAddress, _tokenIds.current());\n        }\n    }\n\n    // Give some CryptoSuit NFTs\n    function giveaway(address winnerAddress, uint256 quantity) external onlyOwner {\n        // Check that there are enough NFT left to mint\n        require(_tokenIds.current().add(quantity) <= totalSupply, \"Exceending maximum supply\");\n\n        // Check that the winnerAddress is not 0x0\n        require(winnerAddress != address(0), \"You can't giveaway to the zero address\");\n\n        // Check that the quantity is a positive number\n        require(quantity > 0, \"You need to specify a positive quantity\");\n\n        // Giveaway some NFTs\n        for (uint256 i = 0; i < quantity; i++) {\n            _tokenIds.increment();\n            _safeMint(winnerAddress, _tokenIds.current());\n            emit GiveAway(msg.sender, winnerAddress, _tokenIds.current());\n        }\n    }\n\n    // Return the token(s) owned by the address\n    function getAssetsByOwner(address ownerAddress) public view returns(uint256[] memory) {\n        // Get the number of assets owned by the address\n        uint256 tokenCount = balanceOf(ownerAddress);\n        if (tokenCount == 0) {\n            return new uint256[](0);\n        }\n\n        // Find and return all the tokens owned by the address\n        uint256[] memory tokens = new uint256[](tokenCount);\n        uint256 tokenMinted = _tokenIds.current();\n        uint256 index = 0;\n        for (uint256 t = 0; t <= tokenMinted; t++) {\n            if (_exists(t) && ownerOf(t) == ownerAddress) {\n                tokens[index] = t;\n                index++;\n            }\n        }\n        return tokens;\n    }\n\n    // Find the tokens owned by the connected address\n    function getMyAssets() external view returns(uint256[] memory) {\n        return getAssetsByOwner(tx.origin);\n    }\n\n    // Withdraw the money from the smart contract\n    function withdraw() external onlyOwner {\n        payable(msg.sender).transfer(address(this).balance);\n    }\n\n\n    /* GETTERS */\n    // Get the status of the sale\n    // If true, the sale is open and it is possible to mint tokens\n    function getSaleStatus() public view returns (bool) {\n        return paused;\n    }\n\n    // Get the base URI\n    function getBaseURI() public view returns (string memory) {\n        return baseURI;\n    }\n\n    // Get the number of token minted so far\n    function getNumberofMintedTokens() public view returns (uint256) {\n        return _tokenIds.current();\n    }\n\n\n    /* SETTERS */\n    // Update the status of the sale and emit an event\n    function setSaleStatus(bool newSaleStatus) public onlyOwner {\n        paused = newSaleStatus;\n        emit SaleStarted(!newSaleStatus);\n    }\n\n    // Set the base URI\n    function setBaseUri(string memory newBaseURI) public onlyOwner {\n        baseURI = newBaseURI;\n    }\n\n    // Set the price\n    function setPrice(uint256 newPrice) external onlyOwner {\n        price = newPrice;\n    }\n\n    // Set the total supply\n    function setTotalSupply(uint256 newSupply) external onlyOwner {\n        totalSupply = newSupply;\n    }\n\n    // Set the maximum purchase\n    function setMaxPurchase(uint256 newMaxPurchase) external onlyOwner {\n        maxPurchase = newMaxPurchase;\n    }\n\n\n    /* OVERRIDE */\n    // Override the baseURI of the server\n    function _baseURI() internal view override returns (string memory) {\n        return baseURI;\n    }\n}\n",
  "sourcePath": "/home/leovct/Documents/blockchain/cryptosuits/smart-contract/contracts/CryptoSuits.sol",
  "compiler": {
    "name": "solc",
    "version": "0.8.7+commit.e28d00a7.Emscripten.clang"
  },
  "schemaVersion": "3.4.3",
  "updatedAt": "2021-09-13T23:39:41.721Z",
  "devdoc": {
    "kind": "dev",
    "methods": {
      "approve(address,uint256)": {
        "details": "See {IERC721-approve}."
      },
      "balanceOf(address)": {
        "details": "See {IERC721-balanceOf}."
      },
      "getApproved(uint256)": {
        "details": "See {IERC721-getApproved}."
      },
      "isApprovedForAll(address,address)": {
        "details": "See {IERC721-isApprovedForAll}."
      },
      "name()": {
        "details": "See {IERC721Metadata-name}."
      },
      "owner()": {
        "details": "Returns the address of the current owner."
      },
      "ownerOf(uint256)": {
        "details": "See {IERC721-ownerOf}."
      },
      "renounceOwnership()": {
        "details": "Leaves the contract without owner. It will not be possible to call `onlyOwner` functions anymore. Can only be called by the current owner. NOTE: Renouncing ownership will leave the contract without an owner, thereby removing any functionality that is only available to the owner."
      },
      "safeTransferFrom(address,address,uint256)": {
        "details": "See {IERC721-safeTransferFrom}."
      },
      "safeTransferFrom(address,address,uint256,bytes)": {
        "details": "See {IERC721-safeTransferFrom}."
      },
      "setApprovalForAll(address,bool)": {
        "details": "See {IERC721-setApprovalForAll}."
      },
      "supportsInterface(bytes4)": {
        "details": "See {IERC165-supportsInterface}."
      },
      "symbol()": {
        "details": "See {IERC721Metadata-symbol}."
      },
      "tokenURI(uint256)": {
        "details": "See {IERC721Metadata-tokenURI}."
      },
      "transferFrom(address,address,uint256)": {
        "details": "See {IERC721-transferFrom}."
      },
      "transferOwnership(address)": {
        "details": "Transfers ownership of the contract to a new account (`newOwner`). Can only be called by the current owner."
      }
    },
    "version": 1
  },
  "userdoc": {
    "kind": "user",
    "methods": {},
    "version": 1
  }
}