{
  "contractName": "CryptoSuits",
  "abi": [
    {
      "inputs": [],
      "stateMutability": "nonpayable",
      "type": "constructor"
    },
    {
      "anonymous": false,
      "inputs": [
        {
          "indexed": true,
          "internalType": "address",
          "name": "owner",
          "type": "address"
        },
        {
          "indexed": true,
          "internalType": "address",
          "name": "approved",
          "type": "address"
        },
        {
          "indexed": true,
          "internalType": "uint256",
          "name": "tokenId",
          "type": "uint256"
        }
      ],
      "name": "Approval",
      "type": "event"
    },
    {
      "anonymous": false,
      "inputs": [
        {
          "indexed": true,
          "internalType": "address",
          "name": "owner",
          "type": "address"
        },
        {
          "indexed": true,
          "internalType": "address",
          "name": "operator",
          "type": "address"
        },
        {
          "indexed": false,
          "internalType": "bool",
          "name": "approved",
          "type": "bool"
        }
      ],
      "name": "ApprovalForAll",
      "type": "event"
    },
    {
      "anonymous": false,
      "inputs": [
        {
          "indexed": false,
          "internalType": "address",
          "name": "minterAddress",
          "type": "address"
        },
        {
          "indexed": false,
          "internalType": "address",
          "name": "winnerAddress",
          "type": "address"
        },
        {
          "indexed": false,
          "internalType": "uint256",
          "name": "tokenId",
          "type": "uint256"
        }
      ],
      "name": "GiveAway",
      "type": "event"
    },
    {
      "anonymous": false,
      "inputs": [
        {
          "indexed": false,
          "internalType": "address",
          "name": "minterAddress",
          "type": "address"
        },
        {
          "indexed": false,
          "internalType": "address",
          "name": "buyerAddress",
          "type": "address"
        },
        {
          "indexed": false,
          "internalType": "uint256",
          "name": "tokenId",
          "type": "uint256"
        }
      ],
      "name": "Mint",
      "type": "event"
    },
    {
      "anonymous": false,
      "inputs": [
        {
          "indexed": true,
          "internalType": "address",
          "name": "previousOwner",
          "type": "address"
        },
        {
          "indexed": true,
          "internalType": "address",
          "name": "newOwner",
          "type": "address"
        }
      ],
      "name": "OwnershipTransferred",
      "type": "event"
    },
    {
      "anonymous": false,
      "inputs": [
        {
          "indexed": false,
          "internalType": "bool",
          "name": "paused",
          "type": "bool"
        }
      ],
      "name": "SaleStatusUpdated",
      "type": "event"
    },
    {
      "anonymous": false,
      "inputs": [
        {
          "indexed": true,
          "internalType": "address",
          "name": "from",
          "type": "address"
        },
        {
          "indexed": true,
          "internalType": "address",
          "name": "to",
          "type": "address"
        },
        {
          "indexed": true,
          "internalType": "uint256",
          "name": "tokenId",
          "type": "uint256"
        }
      ],
      "name": "Transfer",
      "type": "event"
    },
    {
      "anonymous": false,
      "inputs": [
        {
          "indexed": false,
          "internalType": "address",
          "name": "from",
          "type": "address"
        },
        {
          "indexed": false,
          "internalType": "address",
          "name": "to",
          "type": "address"
        },
        {
          "indexed": false,
          "internalType": "uint256",
          "name": "amount",
          "type": "uint256"
        }
      ],
      "name": "Withdraw",
      "type": "event"
    },
    {
      "inputs": [
        {
          "internalType": "address",
          "name": "to",
          "type": "address"
        },
        {
          "internalType": "uint256",
          "name": "tokenId",
          "type": "uint256"
        }
      ],
      "name": "approve",
      "outputs": [],
      "stateMutability": "nonpayable",
      "type": "function"
    },
    {
      "inputs": [
        {
          "internalType": "address",
          "name": "owner",
          "type": "address"
        }
      ],
      "name": "balanceOf",
      "outputs": [
        {
          "internalType": "uint256",
          "name": "",
          "type": "uint256"
        }
      ],
      "stateMutability": "view",
      "type": "function"
    },
    {
      "inputs": [],
      "name": "baseURI",
      "outputs": [
        {
          "internalType": "string",
          "name": "",
          "type": "string"
        }
      ],
      "stateMutability": "view",
      "type": "function"
    },
    {
      "inputs": [
        {
          "internalType": "uint256",
          "name": "tokenId",
          "type": "uint256"
        }
      ],
      "name": "getApproved",
      "outputs": [
        {
          "internalType": "address",
          "name": "",
          "type": "address"
        }
      ],
      "stateMutability": "view",
      "type": "function"
    },
    {
      "inputs": [],
      "name": "giveawaySupply",
      "outputs": [
        {
          "internalType": "uint256",
          "name": "",
          "type": "uint256"
        }
      ],
      "stateMutability": "view",
      "type": "function"
    },
    {
      "inputs": [
        {
          "internalType": "address",
          "name": "owner",
          "type": "address"
        },
        {
          "internalType": "address",
          "name": "operator",
          "type": "address"
        }
      ],
      "name": "isApprovedForAll",
      "outputs": [
        {
          "internalType": "bool",
          "name": "",
          "type": "bool"
        }
      ],
      "stateMutability": "view",
      "type": "function"
    },
    {
      "inputs": [],
      "name": "maxPurchase",
      "outputs": [
        {
          "internalType": "uint256",
          "name": "",
          "type": "uint256"
        }
      ],
      "stateMutability": "view",
      "type": "function"
    },
    {
      "inputs": [],
      "name": "name",
      "outputs": [
        {
          "internalType": "string",
          "name": "",
          "type": "string"
        }
      ],
      "stateMutability": "view",
      "type": "function"
    },
    {
      "inputs": [],
      "name": "owner",
      "outputs": [
        {
          "internalType": "address",
          "name": "",
          "type": "address"
        }
      ],
      "stateMutability": "view",
      "type": "function"
    },
    {
      "inputs": [
        {
          "internalType": "uint256",
          "name": "tokenId",
          "type": "uint256"
        }
      ],
      "name": "ownerOf",
      "outputs": [
        {
          "internalType": "address",
          "name": "",
          "type": "address"
        }
      ],
      "stateMutability": "view",
      "type": "function"
    },
    {
      "inputs": [],
      "name": "paused",
      "outputs": [
        {
          "internalType": "bool",
          "name": "",
          "type": "bool"
        }
      ],
      "stateMutability": "view",
      "type": "function"
    },
    {
      "inputs": [],
      "name": "price",
      "outputs": [
        {
          "internalType": "uint256",
          "name": "",
          "type": "uint256"
        }
      ],
      "stateMutability": "view",
      "type": "function"
    },
    {
      "inputs": [],
      "name": "renounceOwnership",
      "outputs": [],
      "stateMutability": "nonpayable",
      "type": "function"
    },
    {
      "inputs": [
        {
          "internalType": "address",
          "name": "from",
          "type": "address"
        },
        {
          "internalType": "address",
          "name": "to",
          "type": "address"
        },
        {
          "internalType": "uint256",
          "name": "tokenId",
          "type": "uint256"
        }
      ],
      "name": "safeTransferFrom",
      "outputs": [],
      "stateMutability": "nonpayable",
      "type": "function"
    },
    {
      "inputs": [
        {
          "internalType": "address",
          "name": "from",
          "type": "address"
        },
        {
          "internalType": "address",
          "name": "to",
          "type": "address"
        },
        {
          "internalType": "uint256",
          "name": "tokenId",
          "type": "uint256"
        },
        {
          "internalType": "bytes",
          "name": "_data",
          "type": "bytes"
        }
      ],
      "name": "safeTransferFrom",
      "outputs": [],
      "stateMutability": "nonpayable",
      "type": "function"
    },
    {
      "inputs": [
        {
          "internalType": "address",
          "name": "operator",
          "type": "address"
        },
        {
          "internalType": "bool",
          "name": "approved",
          "type": "bool"
        }
      ],
      "name": "setApprovalForAll",
      "outputs": [],
      "stateMutability": "nonpayable",
      "type": "function"
    },
    {
      "inputs": [
        {
          "internalType": "bytes4",
          "name": "interfaceId",
          "type": "bytes4"
        }
      ],
      "name": "supportsInterface",
      "outputs": [
        {
          "internalType": "bool",
          "name": "",
          "type": "bool"
        }
      ],
      "stateMutability": "view",
      "type": "function"
    },
    {
      "inputs": [],
      "name": "symbol",
      "outputs": [
        {
          "internalType": "string",
          "name": "",
          "type": "string"
        }
      ],
      "stateMutability": "view",
      "type": "function"
    },
    {
      "inputs": [
        {
          "internalType": "uint256",
          "name": "tokenId",
          "type": "uint256"
        }
      ],
      "name": "tokenURI",
      "outputs": [
        {
          "internalType": "string",
          "name": "",
          "type": "string"
        }
      ],
      "stateMutability": "view",
      "type": "function"
    },
    {
      "inputs": [],
      "name": "totalSupply",
      "outputs": [
        {
          "internalType": "uint256",
          "name": "",
          "type": "uint256"
        }
      ],
      "stateMutability": "view",
      "type": "function"
    },
    {
      "inputs": [
        {
          "internalType": "address",
          "name": "from",
          "type": "address"
        },
        {
          "internalType": "address",
          "name": "to",
          "type": "address"
        },
        {
          "internalType": "uint256",
          "name": "tokenId",
          "type": "uint256"
        }
      ],
      "name": "transferFrom",
      "outputs": [],
      "stateMutability": "nonpayable",
      "type": "function"
    },
    {
      "inputs": [
        {
          "internalType": "address",
          "name": "newOwner",
          "type": "address"
        }
      ],
      "name": "transferOwnership",
      "outputs": [],
      "stateMutability": "nonpayable",
      "type": "function"
    },
    {
      "inputs": [
        {
          "internalType": "address",
          "name": "buyerAddress",
          "type": "address"
        },
        {
          "internalType": "uint256",
          "name": "quantity",
          "type": "uint256"
        }
      ],
      "name": "mint",
      "outputs": [],
      "stateMutability": "payable",
      "type": "function"
    },
    {
      "inputs": [
        {
          "internalType": "address",
          "name": "winnerAddress",
          "type": "address"
        },
        {
          "internalType": "uint256",
          "name": "quantity",
          "type": "uint256"
        }
      ],
      "name": "giveaway",
      "outputs": [],
      "stateMutability": "nonpayable",
      "type": "function"
    },
    {
      "inputs": [
        {
          "internalType": "address",
          "name": "ownerAddress",
          "type": "address"
        }
      ],
      "name": "getAssetsByOwner",
      "outputs": [
        {
          "internalType": "uint256[]",
          "name": "",
          "type": "uint256[]"
        }
      ],
      "stateMutability": "view",
      "type": "function"
    },
    {
      "inputs": [],
      "name": "withdraw",
      "outputs": [],
      "stateMutability": "nonpayable",
      "type": "function"
    },
    {
      "inputs": [],
      "name": "getSaleStatus",
      "outputs": [
        {
          "internalType": "bool",
          "name": "",
          "type": "bool"
        }
      ],
      "stateMutability": "view",
      "type": "function"
    },
    {
      "inputs": [],
      "name": "getBaseURI",
      "outputs": [
        {
          "internalType": "string",
          "name": "",
          "type": "string"
        }
      ],
      "stateMutability": "view",
      "type": "function"
    },
    {
      "inputs": [],
      "name": "getNumberofMintedTokens",
      "outputs": [
        {
          "internalType": "uint256",
          "name": "",
          "type": "uint256"
        }
      ],
      "stateMutability": "view",
      "type": "function"
    },
    {
      "inputs": [
        {
          "internalType": "bool",
          "name": "newSaleStatus",
          "type": "bool"
        }
      ],
      "name": "updateSaleStatus",
      "outputs": [],
      "stateMutability": "nonpayable",
      "type": "function"
    },
    {
      "inputs": [
        {
          "internalType": "string",
          "name": "newBaseURI",
          "type": "string"
        }
      ],
      "name": "setBaseUri",
      "outputs": [],
      "stateMutability": "nonpayable",
      "type": "function"
    },
    {
      "inputs": [
        {
          "internalType": "uint256",
          "name": "newPrice",
          "type": "uint256"
        }
      ],
      "name": "setPrice",
      "outputs": [],
      "stateMutability": "nonpayable",
      "type": "function"
    },
    {
      "inputs": [
        {
          "internalType": "uint256",
          "name": "newSupply",
          "type": "uint256"
        }
      ],
      "name": "setTotalSupply",
      "outputs": [],
      "stateMutability": "nonpayable",
      "type": "function"
    },
    {
      "inputs": [
        {
          "internalType": "uint256",
          "name": "newMaxPurchase",
          "type": "uint256"
        }
      ],
      "name": "setMaxPurchase",
      "outputs": [],
      "stateMutability": "nonpayable",
      "type": "function"
    }
  ],
  "bytecode": "0x608060405266753d533d96800060075561271060085560966009556014600a556001600b60006101000a81548160ff0219169083151502179055506040518060600160405280602a8152602001620046f2602a9139600c90805190602001906200006b92919062000220565b503480156200007957600080fd5b506040518060400160405280600b81526020017f43727970746f53756974730000000000000000000000000000000000000000008152506040518060400160405280600481526020017f53554954000000000000000000000000000000000000000000000000000000008152508160009080519060200190620000fe92919062000220565b5080600190805190602001906200011792919062000220565b5050506200014c6200013762000152640100000000026401000000009004565b6200015a640100000000026401000000009004565b62000335565b600033905090565b6000600660009054906101000a900473ffffffffffffffffffffffffffffffffffffffff16905081600660006101000a81548173ffffffffffffffffffffffffffffffffffffffff021916908373ffffffffffffffffffffffffffffffffffffffff1602179055508173ffffffffffffffffffffffffffffffffffffffff168173ffffffffffffffffffffffffffffffffffffffff167f8be0079c531659141344cd1fd0a4f28419497f9722a3daafe3b4186f6b6457e060405160405180910390a35050565b8280546200022e90620002d0565b90600052602060002090601f0160209004810192826200025257600085556200029e565b82601f106200026d57805160ff19168380011785556200029e565b828001600101855582156200029e579182015b828111156200029d57825182559160200191906001019062000280565b5b509050620002ad9190620002b1565b5090565b5b80821115620002cc576000816000905550600101620002b2565b5090565b60006002820490506001821680620002e957607f821691505b602082108114156200030057620002ff62000306565b5b50919050565b7f4e487b7100000000000000000000000000000000000000000000000000000000600052602260045260246000fd5b6143ad80620003456000396000f3fe608060405260043610610216576000357c010000000000000000000000000000000000000000000000000000000090048063711897421161012a578063a035b1fe116100bd578063c87b56dd1161008c578063c87b56dd14610709578063e288e73314610746578063e985e9c514610771578063f2fde38b146107ae578063f7ea7a3d146107d757610216565b8063a035b1fe14610663578063a0bcfc7f1461068e578063a22cb465146106b7578063b88d4fde146106e057610216565b80638da5cb5b116100f95780638da5cb5b146105b957806391b7f5ed146105e457806395d89b411461060d578063977b055b1461063857610216565b80637118974214610523578063714c53981461054c578063715018a6146105775780638c3c4b341461058e57610216565b8063276f0934116101ad57806342842e0e1161017c57806342842e0e1461042a5780635c975abb146104535780636352211e1461047e5780636c0360eb146104bb57806370a08231146104e657610216565b8063276f09341461038f5780632c3c888c146103cc5780633ccfd60b146103f757806340c10f191461040e57610216565b8063095ea7b3116101e9578063095ea7b3146102e95780630a0889491461031257806318160ddd1461033b57806323b872dd1461036657610216565b806301ffc9a71461021b578063050225ea1461025857806306fdde0314610281578063081812fc146102ac575b600080fd5b34801561022757600080fd5b50610242600480360381019061023d9190612e59565b610800565b60405161024f91906134aa565b60405180910390f35b34801561026457600080fd5b5061027f600480360381019061027a9190612dec565b6108e2565b005b34801561028d57600080fd5b50610296610b02565b6040516102a391906134c5565b60405180910390f35b3480156102b857600080fd5b506102d360048036038101906102ce9190612efc565b610b94565b6040516102e091906133ea565b60405180910390f35b3480156102f557600080fd5b50610310600480360381019061030b9190612dec565b610c19565b005b34801561031e57600080fd5b5061033960048036038101906103349190612e2c565b610d31565b005b34801561034757600080fd5b50610350610e01565b60405161035d91906137e7565b60405180910390f35b34801561037257600080fd5b5061038d60048036038101906103889190612cd6565b610e07565b005b34801561039b57600080fd5b506103b660048036038101906103b19190612c69565b610e67565b6040516103c39190613488565b60405180910390f35b3480156103d857600080fd5b506103e1610fd4565b6040516103ee91906137e7565b60405180910390f35b34801561040357600080fd5b5061040c610fe5565b005b61042860048036038101906104239190612dec565b611102565b005b34801561043657600080fd5b50610451600480360381019061044c9190612cd6565b611392565b005b34801561045f57600080fd5b506104686113b2565b60405161047591906134aa565b60405180910390f35b34801561048a57600080fd5b506104a560048036038101906104a09190612efc565b6113c5565b6040516104b291906133ea565b60405180910390f35b3480156104c757600080fd5b506104d0611477565b6040516104dd91906134c5565b60405180910390f35b3480156104f257600080fd5b5061050d60048036038101906105089190612c69565b611505565b60405161051a91906137e7565b60405180910390f35b34801561052f57600080fd5b5061054a60048036038101906105459190612efc565b6115bd565b005b34801561055857600080fd5b50610561611643565b60405161056e91906134c5565b60405180910390f35b34801561058357600080fd5b5061058c6116d5565b005b34801561059a57600080fd5b506105a361175d565b6040516105b091906134aa565b60405180910390f35b3480156105c557600080fd5b506105ce611774565b6040516105db91906133ea565b60405180910390f35b3480156105f057600080fd5b5061060b60048036038101906106069190612efc565b61179e565b005b34801561061957600080fd5b50610622611824565b60405161062f91906134c5565b60405180910390f35b34801561064457600080fd5b5061064d6118b6565b60405161065a91906137e7565b60405180910390f35b34801561066f57600080fd5b506106786118bc565b60405161068591906137e7565b60405180910390f35b34801561069a57600080fd5b506106b560048036038101906106b09190612eb3565b6118c2565b005b3480156106c357600080fd5b506106de60048036038101906106d99190612dac565b611958565b005b3480156106ec57600080fd5b5061070760048036038101906107029190612d29565b611ad9565b005b34801561071557600080fd5b50610730600480360381019061072b9190612efc565b611b3b565b60405161073d91906134c5565b60405180910390f35b34801561075257600080fd5b5061075b611be2565b60405161076891906137e7565b60405180910390f35b34801561077d57600080fd5b5061079860048036038101906107939190612c96565b611be8565b6040516107a591906134aa565b60405180910390f35b3480156107ba57600080fd5b506107d560048036038101906107d09190612c69565b611c7c565b005b3480156107e357600080fd5b506107fe60048036038101906107f99190612efc565b611d74565b005b60007f80ac58cd000000000000000000000000000000000000000000000000000000007bffffffffffffffffffffffffffffffffffffffffffffffffffffffff1916827bffffffffffffffffffffffffffffffffffffffffffffffffffffffff191614806108cb57507f5b5e139f000000000000000000000000000000000000000000000000000000007bffffffffffffffffffffffffffffffffffffffffffffffffffffffff1916827bffffffffffffffffffffffffffffffffffffffffffffffffffffffff1916145b806108db57506108da82611dfa565b5b9050919050565b6108ea611e64565b73ffffffffffffffffffffffffffffffffffffffff16610908611774565b73ffffffffffffffffffffffffffffffffffffffff161461095e576040517f08c379a0000000000000000000000000000000000000000000000000000000008152600401610955906136a7565b60405180910390fd5b60095460085461096e9190613905565b61098a8261097c600d611e6c565b611e7a90919063ffffffff16565b11156109cb576040517f08c379a00000000000000000000000000000000000000000000000000000000081526004016109c290613767565b60405180910390fd5b600073ffffffffffffffffffffffffffffffffffffffff168273ffffffffffffffffffffffffffffffffffffffff161415610a3b576040517f08c379a0000000000000000000000000000000000000000000000000000000008152600401610a32906137a7565b60405180910390fd5b60008111610a7e576040517f08c379a0000000000000000000000000000000000000000000000000000000008152600401610a7590613747565b60405180910390fd5b60005b81811015610afd57610a93600d611e90565b610aa683610aa1600d611e6c565b611ea6565b7fecc66049063d141543db69c222724d8bdc0fe299cdaafe5ca7517fd25014d8ef3384610ad3600d611e6c565b604051610ae293929190613405565b60405180910390a18080610af590613b33565b915050610a81565b505050565b606060008054610b1190613ad0565b80601f0160208091040260200160405190810160405280929190818152602001828054610b3d90613ad0565b8015610b8a5780601f10610b5f57610100808354040283529160200191610b8a565b820191906000526020600020905b815481529060010190602001808311610b6d57829003601f168201915b5050505050905090565b6000610b9f82611ec4565b610bde576040517f08c379a0000000000000000000000000000000000000000000000000000000008152600401610bd590613687565b60405180910390fd5b6004600083815260200190815260200160002060009054906101000a900473ffffffffffffffffffffffffffffffffffffffff169050919050565b6000610c24826113c5565b90508073ffffffffffffffffffffffffffffffffffffffff168373ffffffffffffffffffffffffffffffffffffffff161415610c95576040517f08c379a0000000000000000000000000000000000000000000000000000000008152600401610c8c90613727565b60405180910390fd5b8073ffffffffffffffffffffffffffffffffffffffff16610cb4611e64565b73ffffffffffffffffffffffffffffffffffffffff161480610ce35750610ce281610cdd611e64565b611be8565b5b610d22576040517f08c379a0000000000000000000000000000000000000000000000000000000008152600401610d1990613607565b60405180910390fd5b610d2c8383611f30565b505050565b610d39611e64565b73ffffffffffffffffffffffffffffffffffffffff16610d57611774565b73ffffffffffffffffffffffffffffffffffffffff1614610dad576040517f08c379a0000000000000000000000000000000000000000000000000000000008152600401610da4906136a7565b60405180910390fd5b80600b60006101000a81548160ff0219169083151502179055507fc75413bb803e9f5f8572b10a8262838386a1bc5db1743ff399db4f5c32f4691e81604051610df691906134aa565b60405180910390a150565b60085481565b610e18610e12611e64565b82611fe9565b610e57576040517f08c379a0000000000000000000000000000000000000000000000000000000008152600401610e4e90613787565b60405180910390fd5b610e628383836120c7565b505050565b60606000610e7483611505565b90506000811415610ed157600067ffffffffffffffff811115610e9a57610e99613c69565b5b604051908082528060200260200182016040528015610ec85781602001602082028036833780820191505090505b50915050610fcf565b60008167ffffffffffffffff811115610eed57610eec613c69565b5b604051908082528060200260200182016040528015610f1b5781602001602082028036833780820191505090505b5090506000610f2a600d611e6c565b90506000805b828111610fc657610f4081611ec4565b8015610f7f57508673ffffffffffffffffffffffffffffffffffffffff16610f67826113c5565b73ffffffffffffffffffffffffffffffffffffffff16145b15610fb35780848381518110610f9857610f97613c3a565b5b6020026020010181815250508180610faf90613b33565b9250505b8080610fbe90613b33565b915050610f30565b50829450505050505b919050565b6000610fe0600d611e6c565b905090565b610fed611e64565b73ffffffffffffffffffffffffffffffffffffffff1661100b611774565b73ffffffffffffffffffffffffffffffffffffffff1614611061576040517f08c379a0000000000000000000000000000000000000000000000000000000008152600401611058906136a7565b60405180910390fd5b60003073ffffffffffffffffffffffffffffffffffffffff163190503373ffffffffffffffffffffffffffffffffffffffff166108fc829081150290604051600060405180830381858888f193505050501580156110c3573d6000803e3d6000fd5b507f9b1bfa7fa9ee420a16e124f794c35ac9f90472acc99140eb2f6447c714cad8eb3033836040516110f793929190613405565b60405180910390a150565b600b60009054906101000a900460ff1615611152576040517f08c379a000000000000000000000000000000000000000000000000000000000815260040161114990613707565b60405180910390fd5b600073ffffffffffffffffffffffffffffffffffffffff168273ffffffffffffffffffffffffffffffffffffffff1614156111c2576040517f08c379a00000000000000000000000000000000000000000000000000000000081526004016111b9906137c7565b60405180910390fd5b60008111611205576040517f08c379a00000000000000000000000000000000000000000000000000000000081526004016111fc906134e7565b60405180910390fd5b600a5481111561124a576040517f08c379a0000000000000000000000000000000000000000000000000000000008152600401611241906135a7565b60405180910390fd5b60095460085461125a91906139e6565b61127682611268600d611e6c565b611e7a90919063ffffffff16565b11156112b7576040517f08c379a00000000000000000000000000000000000000000000000000000000081526004016112ae90613767565b60405180910390fd5b346112cd8260075461232390919063ffffffff16565b111561130e576040517f08c379a0000000000000000000000000000000000000000000000000000000008152600401611305906135e7565b60405180910390fd5b60005b8181101561138d57611323600d611e90565b61133683611331600d611e6c565b611ea6565b7fab8530f87dc9b59234c4623bf917212bb2536d647574c8e7e5da92c2ede0c9f83384611363600d611e6c565b60405161137293929190613405565b60405180910390a1808061138590613b33565b915050611311565b505050565b6113ad83838360405180602001604052806000815250611ad9565b505050565b600b60009054906101000a900460ff1681565b6000806002600084815260200190815260200160002060009054906101000a900473ffffffffffffffffffffffffffffffffffffffff169050600073ffffffffffffffffffffffffffffffffffffffff168173ffffffffffffffffffffffffffffffffffffffff16141561146e576040517f08c379a000000000000000000000000000000000000000000000000000000000815260040161146590613647565b60405180910390fd5b80915050919050565b600c805461148490613ad0565b80601f01602080910402602001604051908101604052809291908181526020018280546114b090613ad0565b80156114fd5780601f106114d2576101008083540402835291602001916114fd565b820191906000526020600020905b8154815290600101906020018083116114e057829003601f168201915b505050505081565b60008073ffffffffffffffffffffffffffffffffffffffff168273ffffffffffffffffffffffffffffffffffffffff161415611576576040517f08c379a000000000000000000000000000000000000000000000000000000000815260040161156d90613627565b60405180910390fd5b600360008373ffffffffffffffffffffffffffffffffffffffff1673ffffffffffffffffffffffffffffffffffffffff168152602001908152602001600020549050919050565b6115c5611e64565b73ffffffffffffffffffffffffffffffffffffffff166115e3611774565b73ffffffffffffffffffffffffffffffffffffffff1614611639576040517f08c379a0000000000000000000000000000000000000000000000000000000008152600401611630906136a7565b60405180910390fd5b80600a8190555050565b6060600c805461165290613ad0565b80601f016020809104026020016040519081016040528092919081815260200182805461167e90613ad0565b80156116cb5780601f106116a0576101008083540402835291602001916116cb565b820191906000526020600020905b8154815290600101906020018083116116ae57829003601f168201915b5050505050905090565b6116dd611e64565b73ffffffffffffffffffffffffffffffffffffffff166116fb611774565b73ffffffffffffffffffffffffffffffffffffffff1614611751576040517f08c379a0000000000000000000000000000000000000000000000000000000008152600401611748906136a7565b60405180910390fd5b61175b6000612339565b565b6000600b60009054906101000a900460ff16905090565b6000600660009054906101000a900473ffffffffffffffffffffffffffffffffffffffff16905090565b6117a6611e64565b73ffffffffffffffffffffffffffffffffffffffff166117c4611774565b73ffffffffffffffffffffffffffffffffffffffff161461181a576040517f08c379a0000000000000000000000000000000000000000000000000000000008152600401611811906136a7565b60405180910390fd5b8060078190555050565b60606001805461183390613ad0565b80601f016020809104026020016040519081016040528092919081815260200182805461185f90613ad0565b80156118ac5780601f10611881576101008083540402835291602001916118ac565b820191906000526020600020905b81548152906001019060200180831161188f57829003601f168201915b5050505050905090565b600a5481565b60075481565b6118ca611e64565b73ffffffffffffffffffffffffffffffffffffffff166118e8611774565b73ffffffffffffffffffffffffffffffffffffffff161461193e576040517f08c379a0000000000000000000000000000000000000000000000000000000008152600401611935906136a7565b60405180910390fd5b80600c9080519060200190611954929190612a7d565b5050565b611960611e64565b73ffffffffffffffffffffffffffffffffffffffff168273ffffffffffffffffffffffffffffffffffffffff1614156119ce576040517f08c379a00000000000000000000000000000000000000000000000000000000081526004016119c590613587565b60405180910390fd5b80600560006119db611e64565b73ffffffffffffffffffffffffffffffffffffffff1673ffffffffffffffffffffffffffffffffffffffff16815260200190815260200160002060008473ffffffffffffffffffffffffffffffffffffffff1673ffffffffffffffffffffffffffffffffffffffff16815260200190815260200160002060006101000a81548160ff0219169083151502179055508173ffffffffffffffffffffffffffffffffffffffff16611a88611e64565b73ffffffffffffffffffffffffffffffffffffffff167f17307eab39ab6107e8899845ad3d59bd9653f200f220920489ca2b5937696c3183604051611acd91906134aa565b60405180910390a35050565b611aea611ae4611e64565b83611fe9565b611b29576040517f08c379a0000000000000000000000000000000000000000000000000000000008152600401611b2090613787565b60405180910390fd5b611b35848484846123ff565b50505050565b6060611b4682611ec4565b611b85576040517f08c379a0000000000000000000000000000000000000000000000000000000008152600401611b7c906136e7565b60405180910390fd5b6000611b8f61245b565b90506000815111611baf5760405180602001604052806000815250611bda565b80611bb9846124ed565b604051602001611bca9291906133c6565b6040516020818303038152906040525b915050919050565b60095481565b6000600560008473ffffffffffffffffffffffffffffffffffffffff1673ffffffffffffffffffffffffffffffffffffffff16815260200190815260200160002060008373ffffffffffffffffffffffffffffffffffffffff1673ffffffffffffffffffffffffffffffffffffffff16815260200190815260200160002060009054906101000a900460ff16905092915050565b611c84611e64565b73ffffffffffffffffffffffffffffffffffffffff16611ca2611774565b73ffffffffffffffffffffffffffffffffffffffff1614611cf8576040517f08c379a0000000000000000000000000000000000000000000000000000000008152600401611cef906136a7565b60405180910390fd5b600073ffffffffffffffffffffffffffffffffffffffff168173ffffffffffffffffffffffffffffffffffffffff161415611d68576040517f08c379a0000000000000000000000000000000000000000000000000000000008152600401611d5f90613527565b60405180910390fd5b611d7181612339565b50565b611d7c611e64565b73ffffffffffffffffffffffffffffffffffffffff16611d9a611774565b73ffffffffffffffffffffffffffffffffffffffff1614611df0576040517f08c379a0000000000000000000000000000000000000000000000000000000008152600401611de7906136a7565b60405180910390fd5b8060088190555050565b60007f01ffc9a7000000000000000000000000000000000000000000000000000000007bffffffffffffffffffffffffffffffffffffffffffffffffffffffff1916827bffffffffffffffffffffffffffffffffffffffffffffffffffffffff1916149050919050565b600033905090565b600081600001549050919050565b60008183611e889190613905565b905092915050565b6001816000016000828254019250508190555050565b611ec082826040518060200160405280600081525061266d565b5050565b60008073ffffffffffffffffffffffffffffffffffffffff166002600084815260200190815260200160002060009054906101000a900473ffffffffffffffffffffffffffffffffffffffff1673ffffffffffffffffffffffffffffffffffffffff1614159050919050565b816004600083815260200190815260200160002060006101000a81548173ffffffffffffffffffffffffffffffffffffffff021916908373ffffffffffffffffffffffffffffffffffffffff160217905550808273ffffffffffffffffffffffffffffffffffffffff16611fa3836113c5565b73ffffffffffffffffffffffffffffffffffffffff167f8c5be1e5ebec7d5bd14f71427d1e84f3dd0314c0f7b2291e5b200ac8c7c3b92560405160405180910390a45050565b6000611ff482611ec4565b612033576040517f08c379a000000000000000000000000000000000000000000000000000000000815260040161202a906135c7565b60405180910390fd5b600061203e836113c5565b90508073ffffffffffffffffffffffffffffffffffffffff168473ffffffffffffffffffffffffffffffffffffffff1614806120ad57508373ffffffffffffffffffffffffffffffffffffffff1661209584610b94565b73ffffffffffffffffffffffffffffffffffffffff16145b806120be57506120bd8185611be8565b5b91505092915050565b8273ffffffffffffffffffffffffffffffffffffffff166120e7826113c5565b73ffffffffffffffffffffffffffffffffffffffff161461213d576040517f08c379a0000000000000000000000000000000000000000000000000000000008152600401612134906136c7565b60405180910390fd5b600073ffffffffffffffffffffffffffffffffffffffff168273ffffffffffffffffffffffffffffffffffffffff1614156121ad576040517f08c379a00000000000000000000000000000000000000000000000000000000081526004016121a490613567565b60405180910390fd5b6121b88383836126c8565b6121c3600082611f30565b6001600360008573ffffffffffffffffffffffffffffffffffffffff1673ffffffffffffffffffffffffffffffffffffffff168152602001908152602001600020600082825461221391906139e6565b925050819055506001600360008473ffffffffffffffffffffffffffffffffffffffff1673ffffffffffffffffffffffffffffffffffffffff168152602001908152602001600020600082825461226a9190613905565b92505081905550816002600083815260200190815260200160002060006101000a81548173ffffffffffffffffffffffffffffffffffffffff021916908373ffffffffffffffffffffffffffffffffffffffff160217905550808273ffffffffffffffffffffffffffffffffffffffff168473ffffffffffffffffffffffffffffffffffffffff167fddf252ad1be2c89b69c2b068fc378daa952ba7f163c4a11628f55a4df523b3ef60405160405180910390a4505050565b60008183612331919061398c565b905092915050565b6000600660009054906101000a900473ffffffffffffffffffffffffffffffffffffffff16905081600660006101000a81548173ffffffffffffffffffffffffffffffffffffffff021916908373ffffffffffffffffffffffffffffffffffffffff1602179055508173ffffffffffffffffffffffffffffffffffffffff168173ffffffffffffffffffffffffffffffffffffffff167f8be0079c531659141344cd1fd0a4f28419497f9722a3daafe3b4186f6b6457e060405160405180910390a35050565b61240a8484846120c7565b612416848484846126cd565b612455576040517f08c379a000000000000000000000000000000000000000000000000000000000815260040161244c90613507565b60405180910390fd5b50505050565b6060600c805461246a90613ad0565b80601f016020809104026020016040519081016040528092919081815260200182805461249690613ad0565b80156124e35780601f106124b8576101008083540402835291602001916124e3565b820191906000526020600020905b8154815290600101906020018083116124c657829003601f168201915b5050505050905090565b60606000821415612535576040518060400160405280600181526020017f30000000000000000000000000000000000000000000000000000000000000008152509050612668565b600082905060005b6000821461256757808061255090613b33565b915050600a82612560919061395b565b915061253d565b60008167ffffffffffffffff81111561258357612582613c69565b5b6040519080825280601f01601f1916602001820160405280156125b55781602001600182028036833780820191505090505b5090505b60008514612661576001826125ce91906139e6565b9150600a856125dd9190613b7c565b60306125e99190613905565b7f01000000000000000000000000000000000000000000000000000000000000000281838151811061261e5761261d613c3a565b5b60200101907effffffffffffffffffffffffffffffffffffffffffffffffffffffffffffff1916908160001a905350600a8561265a919061395b565b94506125b9565b8093505050505b919050565b612677838361289c565b61268460008484846126cd565b6126c3576040517f08c379a00000000000000000000000000000000000000000000000000000000081526004016126ba90613507565b60405180910390fd5b505050565b505050565b60006126ee8473ffffffffffffffffffffffffffffffffffffffff16612a6a565b1561288f578373ffffffffffffffffffffffffffffffffffffffff1663150b7a02612717611e64565b8786866040518563ffffffff167c0100000000000000000000000000000000000000000000000000000000028152600401612755949392919061343c565b602060405180830381600087803b15801561276f57600080fd5b505af19250505080156127a057506040513d601f19601f8201168201806040525081019061279d9190612e86565b60015b612823573d80600081146127d0576040519150601f19603f3d011682016040523d82523d6000602084013e6127d5565b606091505b5060008151141561281b576040517f08c379a000000000000000000000000000000000000000000000000000000000815260040161281290613507565b60405180910390fd5b805181602001fd5b63150b7a027c0100000000000000000000000000000000000000000000000000000000027bffffffffffffffffffffffffffffffffffffffffffffffffffffffff1916817bffffffffffffffffffffffffffffffffffffffffffffffffffffffff191614915050612894565b600190505b949350505050565b600073ffffffffffffffffffffffffffffffffffffffff168273ffffffffffffffffffffffffffffffffffffffff16141561290c576040517f08c379a000000000000000000000000000000000000000000000000000000000815260040161290390613667565b60405180910390fd5b61291581611ec4565b15612955576040517f08c379a000000000000000000000000000000000000000000000000000000000815260040161294c90613547565b60405180910390fd5b612961600083836126c8565b6001600360008473ffffffffffffffffffffffffffffffffffffffff1673ffffffffffffffffffffffffffffffffffffffff16815260200190815260200160002060008282546129b19190613905565b92505081905550816002600083815260200190815260200160002060006101000a81548173ffffffffffffffffffffffffffffffffffffffff021916908373ffffffffffffffffffffffffffffffffffffffff160217905550808273ffffffffffffffffffffffffffffffffffffffff16600073ffffffffffffffffffffffffffffffffffffffff167fddf252ad1be2c89b69c2b068fc378daa952ba7f163c4a11628f55a4df523b3ef60405160405180910390a45050565b600080823b905060008111915050919050565b828054612a8990613ad0565b90600052602060002090601f016020900481019282612aab5760008555612af2565b82601f10612ac457805160ff1916838001178555612af2565b82800160010185558215612af2579182015b82811115612af1578251825591602001919060010190612ad6565b5b509050612aff9190612b03565b5090565b5b80821115612b1c576000816000905550600101612b04565b5090565b6000612b33612b2e84613827565b613802565b905082815260208101848484011115612b4f57612b4e613c9d565b5b612b5a848285613a8e565b509392505050565b6000612b75612b7084613858565b613802565b905082815260208101848484011115612b9157612b90613c9d565b5b612b9c848285613a8e565b509392505050565b600081359050612bb38161431b565b92915050565b600081359050612bc881614332565b92915050565b600081359050612bdd81614349565b92915050565b600081519050612bf281614349565b92915050565b600082601f830112612c0d57612c0c613c98565b5b8135612c1d848260208601612b20565b91505092915050565b600082601f830112612c3b57612c3a613c98565b5b8135612c4b848260208601612b62565b91505092915050565b600081359050612c6381614360565b92915050565b600060208284031215612c7f57612c7e613ca7565b5b6000612c8d84828501612ba4565b91505092915050565b60008060408385031215612cad57612cac613ca7565b5b6000612cbb85828601612ba4565b9250506020612ccc85828601612ba4565b9150509250929050565b600080600060608486031215612cef57612cee613ca7565b5b6000612cfd86828701612ba4565b9350506020612d0e86828701612ba4565b9250506040612d1f86828701612c54565b9150509250925092565b60008060008060808587031215612d4357612d42613ca7565b5b6000612d5187828801612ba4565b9450506020612d6287828801612ba4565b9350506040612d7387828801612c54565b925050606085013567ffffffffffffffff811115612d9457612d93613ca2565b5b612da087828801612bf8565b91505092959194509250565b60008060408385031215612dc357612dc2613ca7565b5b6000612dd185828601612ba4565b9250506020612de285828601612bb9565b9150509250929050565b60008060408385031215612e0357612e02613ca7565b5b6000612e1185828601612ba4565b9250506020612e2285828601612c54565b9150509250929050565b600060208284031215612e4257612e41613ca7565b5b6000612e5084828501612bb9565b91505092915050565b600060208284031215612e6f57612e6e613ca7565b5b6000612e7d84828501612bce565b91505092915050565b600060208284031215612e9c57612e9b613ca7565b5b6000612eaa84828501612be3565b91505092915050565b600060208284031215612ec957612ec8613ca7565b5b600082013567ffffffffffffffff811115612ee757612ee6613ca2565b5b612ef384828501612c26565b91505092915050565b600060208284031215612f1257612f11613ca7565b5b6000612f2084828501612c54565b91505092915050565b6000612f3583836133a8565b60208301905092915050565b612f4a81613a1a565b82525050565b6000612f5b82613899565b612f6581856138c7565b9350612f7083613889565b8060005b83811015612fa1578151612f888882612f29565b9750612f93836138ba565b925050600181019050612f74565b5085935050505092915050565b612fb781613a2c565b82525050565b6000612fc8826138a4565b612fd281856138d8565b9350612fe2818560208601613a9d565b612feb81613cac565b840191505092915050565b6000613001826138af565b61300b81856138e9565b935061301b818560208601613a9d565b61302481613cac565b840191505092915050565b600061303a826138af565b61304481856138fa565b9350613054818560208601613a9d565b80840191505092915050565b600061306d6029836138e9565b915061307882613cbd565b604082019050919050565b60006130906032836138e9565b915061309b82613d0c565b604082019050919050565b60006130b36026836138e9565b91506130be82613d5b565b604082019050919050565b60006130d6601c836138e9565b91506130e182613daa565b602082019050919050565b60006130f96024836138e9565b915061310482613dd3565b604082019050919050565b600061311c6019836138e9565b915061312782613e22565b602082019050919050565b600061313f603f836138e9565b915061314a82613e4b565b604082019050919050565b6000613162602c836138e9565b915061316d82613e9a565b604082019050919050565b6000613185601f836138e9565b915061319082613ee9565b602082019050919050565b60006131a86038836138e9565b91506131b382613f12565b604082019050919050565b60006131cb602a836138e9565b91506131d682613f61565b604082019050919050565b60006131ee6029836138e9565b91506131f982613fb0565b604082019050919050565b60006132116020836138e9565b915061321c82613fff565b602082019050919050565b6000613234602c836138e9565b915061323f82614028565b604082019050919050565b60006132576020836138e9565b915061326282614077565b602082019050919050565b600061327a6029836138e9565b9150613285826140a0565b604082019050919050565b600061329d602f836138e9565b91506132a8826140ef565b604082019050919050565b60006132c0601c836138e9565b91506132cb8261413e565b602082019050919050565b60006132e36021836138e9565b91506132ee82614167565b604082019050919050565b60006133066027836138e9565b9150613311826141b6565b604082019050919050565b60006133296019836138e9565b915061333482614205565b602082019050919050565b600061334c6031836138e9565b91506133578261422e565b604082019050919050565b600061336f6026836138e9565b915061337a8261427d565b604082019050919050565b60006133926022836138e9565b915061339d826142cc565b604082019050919050565b6133b181613a84565b82525050565b6133c081613a84565b82525050565b60006133d2828561302f565b91506133de828461302f565b91508190509392505050565b60006020820190506133ff6000830184612f41565b92915050565b600060608201905061341a6000830186612f41565b6134276020830185612f41565b61343460408301846133b7565b949350505050565b60006080820190506134516000830187612f41565b61345e6020830186612f41565b61346b60408301856133b7565b818103606083015261347d8184612fbd565b905095945050505050565b600060208201905081810360008301526134a28184612f50565b905092915050565b60006020820190506134bf6000830184612fae565b92915050565b600060208201905081810360008301526134df8184612ff6565b905092915050565b6000602082019050818103600083015261350081613060565b9050919050565b6000602082019050818103600083015261352081613083565b9050919050565b60006020820190508181036000830152613540816130a6565b9050919050565b60006020820190508181036000830152613560816130c9565b9050919050565b60006020820190508181036000830152613580816130ec565b9050919050565b600060208201905081810360008301526135a08161310f565b9050919050565b600060208201905081810360008301526135c081613132565b9050919050565b600060208201905081810360008301526135e081613155565b9050919050565b6000602082019050818103600083015261360081613178565b9050919050565b600060208201905081810360008301526136208161319b565b9050919050565b60006020820190508181036000830152613640816131be565b9050919050565b60006020820190508181036000830152613660816131e1565b9050919050565b6000602082019050818103600083015261368081613204565b9050919050565b600060208201905081810360008301526136a081613227565b9050919050565b600060208201905081810360008301526136c08161324a565b9050919050565b600060208201905081810360008301526136e08161326d565b9050919050565b6000602082019050818103600083015261370081613290565b9050919050565b60006020820190508181036000830152613720816132b3565b9050919050565b60006020820190508181036000830152613740816132d6565b9050919050565b60006020820190508181036000830152613760816132f9565b9050919050565b600060208201905081810360008301526137808161331c565b9050919050565b600060208201905081810360008301526137a08161333f565b9050919050565b600060208201905081810360008301526137c081613362565b9050919050565b600060208201905081810360008301526137e081613385565b9050919050565b60006020820190506137fc60008301846133b7565b92915050565b600061380c61381d565b90506138188282613b02565b919050565b6000604051905090565b600067ffffffffffffffff82111561384257613841613c69565b5b61384b82613cac565b9050602081019050919050565b600067ffffffffffffffff82111561387357613872613c69565b5b61387c82613cac565b9050602081019050919050565b6000819050602082019050919050565b600081519050919050565b600081519050919050565b600081519050919050565b6000602082019050919050565b600082825260208201905092915050565b600082825260208201905092915050565b600082825260208201905092915050565b600081905092915050565b600061391082613a84565b915061391b83613a84565b9250827fffffffffffffffffffffffffffffffffffffffffffffffffffffffffffffffff038211156139505761394f613bad565b5b828201905092915050565b600061396682613a84565b915061397183613a84565b92508261398157613980613bdc565b5b828204905092915050565b600061399782613a84565b91506139a283613a84565b9250817fffffffffffffffffffffffffffffffffffffffffffffffffffffffffffffffff04831182151516156139db576139da613bad565b5b828202905092915050565b60006139f182613a84565b91506139fc83613a84565b925082821015613a0f57613a0e613bad565b5b828203905092915050565b6000613a2582613a64565b9050919050565b60008115159050919050565b60007fffffffff0000000000000000000000000000000000000000000000000000000082169050919050565b600073ffffffffffffffffffffffffffffffffffffffff82169050919050565b6000819050919050565b82818337600083830152505050565b60005b83811015613abb578082015181840152602081019050613aa0565b83811115613aca576000848401525b50505050565b60006002820490506001821680613ae857607f821691505b60208210811415613afc57613afb613c0b565b5b50919050565b613b0b82613cac565b810181811067ffffffffffffffff82111715613b2a57613b29613c69565b5b80604052505050565b6000613b3e82613a84565b91507fffffffffffffffffffffffffffffffffffffffffffffffffffffffffffffffff821415613b7157613b70613bad565b5b600182019050919050565b6000613b8782613a84565b9150613b9283613a84565b925082613ba257613ba1613bdc565b5b828206905092915050565b7f4e487b7100000000000000000000000000000000000000000000000000000000600052601160045260246000fd5b7f4e487b7100000000000000000000000000000000000000000000000000000000600052601260045260246000fd5b7f4e487b7100000000000000000000000000000000000000000000000000000000600052602260045260246000fd5b7f4e487b7100000000000000000000000000000000000000000000000000000000600052603260045260246000fd5b7f4e487b7100000000000000000000000000000000000000000000000000000000600052604160045260246000fd5b600080fd5b600080fd5b600080fd5b600080fd5b6000601f19601f8301169050919050565b7f596f75206e65656420746f20627579206174206c65617374203120437279707460008201527f6f53756974204e46540000000000000000000000000000000000000000000000602082015250565b7f4552433732313a207472616e7366657220746f206e6f6e20455243373231526560008201527f63656976657220696d706c656d656e7465720000000000000000000000000000602082015250565b7f4f776e61626c653a206e6577206f776e657220697320746865207a65726f206160008201527f6464726573730000000000000000000000000000000000000000000000000000602082015250565b7f4552433732313a20746f6b656e20616c7265616479206d696e74656400000000600082015250565b7f4552433732313a207472616e7366657220746f20746865207a65726f2061646460008201527f7265737300000000000000000000000000000000000000000000000000000000602082015250565b7f4552433732313a20617070726f766520746f2063616c6c657200000000000000600082015250565b7f596f752063616e2774206275792074686174206d75636820746f6b656e73206960008201527f6e2061207472616e73616374696f6e20286d6178696d756d2069732032302900602082015250565b7f4552433732313a206f70657261746f7220717565727920666f72206e6f6e657860008201527f697374656e7420746f6b656e0000000000000000000000000000000000000000602082015250565b7f57726f6e672070726963652c20646f6e2774206675636b2061726f756e642100600082015250565b7f4552433732313a20617070726f76652063616c6c6572206973206e6f74206f7760008201527f6e6572206e6f7220617070726f76656420666f7220616c6c0000000000000000602082015250565b7f4552433732313a2062616c616e636520717565727920666f7220746865207a6560008201527f726f206164647265737300000000000000000000000000000000000000000000602082015250565b7f4552433732313a206f776e657220717565727920666f72206e6f6e657869737460008201527f656e7420746f6b656e0000000000000000000000000000000000000000000000602082015250565b7f4552433732313a206d696e7420746f20746865207a65726f2061646472657373600082015250565b7f4552433732313a20617070726f76656420717565727920666f72206e6f6e657860008201527f697374656e7420746f6b656e0000000000000000000000000000000000000000602082015250565b7f4f776e61626c653a2063616c6c6572206973206e6f7420746865206f776e6572600082015250565b7f4552433732313a207472616e73666572206f6620746f6b656e2074686174206960008201527f73206e6f74206f776e0000000000000000000000000000000000000000000000602082015250565b7f4552433732314d657461646174613a2055524920717565727920666f72206e6f60008201527f6e6578697374656e7420746f6b656e0000000000000000000000000000000000602082015250565b7f5468652073616c6520686173206e6f7420737461727465642079657400000000600082015250565b7f4552433732313a20617070726f76616c20746f2063757272656e74206f776e6560008201527f7200000000000000000000000000000000000000000000000000000000000000602082015250565b7f596f75206e65656420746f2073706563696679206120706f736974697665207160008201527f75616e7469747900000000000000000000000000000000000000000000000000602082015250565b7f45786365656e64696e67206d6178696d756d20737570706c7900000000000000600082015250565b7f4552433732313a207472616e736665722063616c6c6572206973206e6f74206f60008201527f776e6572206e6f7220617070726f766564000000000000000000000000000000602082015250565b7f596f752063616e277420676976656177617920746f20746865207a65726f206160008201527f6464726573730000000000000000000000000000000000000000000000000000602082015250565b7f596f752063616e2774206d696e7420746f20746865207a65726f20616464726560008201527f7373000000000000000000000000000000000000000000000000000000000000602082015250565b61432481613a1a565b811461432f57600080fd5b50565b61433b81613a2c565b811461434657600080fd5b50565b61435281613a38565b811461435d57600080fd5b50565b61436981613a84565b811461437457600080fd5b5056fea2646970667358221220364e002e06e5fc2b8d8da558860bd7951ddb206db5f6ab00598c28a722f8855b64736f6c6343000807003368747470733a2f2f63727970746f737569742d6170692e6865726f6b756170702e636f6d2f6a736f6e2f",
  "immutableReferences": {},
  "source": "// SPDX-License-Identifier: MIT\n// CryptoSuits NFT\npragma solidity ^0.8.0;\n\nimport \"@openzeppelin/contracts/token/ERC721/ERC721.sol\";\nimport \"@openzeppelin/contracts/access/Ownable.sol\";\n\nimport \"@openzeppelin/contracts/utils/Counters.sol\";\nimport '@openzeppelin/contracts/utils/math/SafeMath.sol';\n\ncontract CryptoSuits is ERC721, Ownable {\n    using Counters for Counters.Counter;\n    using SafeMath for uint256;\n\n    /* CONSTANTS */\n    // Price of a CryptoSuit NFT\n    uint256 public price = 0.033 ether;\n\n    // Number of NFT available to mint\n    uint256 public totalSupply = 10000;\n\n    // Number of NFT available to giveaway\n    uint256 public giveawaySupply = 150;\n\n    // Maximum purchase of NFT in one transaction\n    uint256 public maxPurchase = 20;\n\n\n    /* VARIABLES */\n    // Status of the sale (if paused, the sale has not started yet)\n    bool public paused = true;\n\n    // Base URI of the backend server\n    string public baseURI = 'https://cryptosuit-api.herokuapp.com/json/';\n\n    // Counter of the number of CryptoSuits token minted\n    Counters.Counter private _tokenIds;\n\n\n    /* EVENTS */\n    event SaleStatusUpdated(bool paused);\n    event Withdraw(address from, address to, uint256 amount);\n    event Mint(address minterAddress, address buyerAddress, uint256 tokenId);\n    event GiveAway(address minterAddress, address winnerAddress, uint256 tokenId);\n\n\n    /* CONSTRUCTOR */\n    constructor() ERC721(\"CryptoSuits\", \"SUIT\") {}\n\n\n    /* FUNCTIONS */\n    // Mint some CryptoSuits NFT\n    function mint(address buyerAddress, uint256 quantity) public payable {\n        // Check that the sale has started\n        require(!paused, \"The sale has not started yet\");\n\n        // Check that the buyerAddress is not 0x0\n        require(buyerAddress != address(0), \"You can't mint to the zero address\");\n\n        // Check that the 0 < quantity <= maxPurchase\n        require(quantity > 0, \"You need to buy at least 1 CryptoSuit NFT\");\n        require(quantity <= maxPurchase, \"You can't buy that much tokens in a transaction (maximum is 20)\");\n        \n        // Check that there are enough NFT left to mint\n        require(_tokenIds.current().add(quantity) <= (totalSupply - giveawaySupply), \"Exceending maximum supply\");\n\n        // Check that the price is correct\n        require(price.mul(quantity) <= msg.value, \"Wrong price, don't fuck around!\");\n        \n        // Mint some NFTs\n        for (uint256 i = 0; i < quantity; i++) {\n            _tokenIds.increment();\n            _safeMint(buyerAddress, _tokenIds.current());\n            emit Mint(msg.sender, buyerAddress, _tokenIds.current());\n        }\n    }\n\n    // Give some CryptoSuit NFTs\n    function giveaway(address winnerAddress, uint256 quantity) external onlyOwner {\n        // Check that there are enough NFT left to mint\n        require(_tokenIds.current().add(quantity) <= totalSupply + giveawaySupply, \"Exceending maximum supply\");\n\n        // Check that the winnerAddress is not 0x0\n        require(winnerAddress != address(0), \"You can't giveaway to the zero address\");\n\n        // Check that the quantity is a positive number\n        require(quantity > 0, \"You need to specify a positive quantity\");\n\n        // Giveaway some NFTs\n        for (uint256 i = 0; i < quantity; i++) {\n            _tokenIds.increment();\n            _safeMint(winnerAddress, _tokenIds.current());\n            emit GiveAway(msg.sender, winnerAddress, _tokenIds.current());\n        }\n    }\n\n    // Return the token(s) owned by the address\n    function getAssetsByOwner(address ownerAddress) public view returns(uint256[] memory) {\n        // Get the number of assets owned by the address\n        uint256 tokenCount = balanceOf(ownerAddress);\n        if (tokenCount == 0) {\n            return new uint256[](0);\n        }\n\n        // Find and return all the tokens owned by the address\n        uint256[] memory tokens = new uint256[](tokenCount);\n        uint256 tokenMinted = _tokenIds.current();\n        uint256 index = 0;\n        for (uint256 t = 0; t <= tokenMinted; t++) {\n            if (_exists(t) && ownerOf(t) == ownerAddress) {\n                tokens[index] = t;\n                index++;\n            }\n        }\n        return tokens;\n    }\n\n    // Withdraw the money from the smart contract\n    function withdraw() external onlyOwner {\n        uint256 amount = address(this).balance;\n        payable(msg.sender).transfer(amount);\n        emit Withdraw(address(this), msg.sender, amount);\n    }\n\n\n    /* GETTERS */\n    // Get the status of the sale\n    // If true, the sale is open and it is possible to mint tokens\n    function getSaleStatus() public view returns (bool) {\n        return paused;\n    }\n\n    // Get the base URI\n    function getBaseURI() public view returns (string memory) {\n        return baseURI;\n    }\n\n    // Get the number of token minted so far\n    function getNumberofMintedTokens() public view returns (uint256) {\n        return _tokenIds.current();\n    }\n\n\n    /* SETTERS */\n    // Update the status of the sale and emit an event\n    function updateSaleStatus(bool newSaleStatus) external onlyOwner {\n        paused = newSaleStatus;\n        emit SaleStatusUpdated(newSaleStatus);\n    }\n\n    // Set the base URI\n    function setBaseUri(string memory newBaseURI) external onlyOwner {\n        baseURI = newBaseURI;\n    }\n\n    // Set the price\n    function setPrice(uint256 newPrice) external onlyOwner {\n        price = newPrice;\n    }\n\n    // Set the total supply\n    function setTotalSupply(uint256 newSupply) external onlyOwner {\n        totalSupply = newSupply;\n    }\n\n    // Set the maximum purchase\n    function setMaxPurchase(uint256 newMaxPurchase) external onlyOwner {\n        maxPurchase = newMaxPurchase;\n    }\n\n\n    /* OVERRIDE */\n    // Override the baseURI of the server\n    function _baseURI() internal view override returns (string memory) {\n        return baseURI;\n    }\n}\n",
  "sourcePath": "/home/leovct/Documents/blockchain/cryptosuits/smart-contract/contracts/CryptoSuits.sol",
  "compiler": {
    "name": "solc",
    "version": "0.8.7+commit.e28d00a7.Emscripten.clang"
  },
  "schemaVersion": "3.4.3",
  "updatedAt": "2021-09-19T17:08:05.019Z",
  "devdoc": {
    "kind": "dev",
    "methods": {
      "approve(address,uint256)": {
        "details": "See {IERC721-approve}."
      },
      "balanceOf(address)": {
        "details": "See {IERC721-balanceOf}."
      },
      "getApproved(uint256)": {
        "details": "See {IERC721-getApproved}."
      },
      "isApprovedForAll(address,address)": {
        "details": "See {IERC721-isApprovedForAll}."
      },
      "name()": {
        "details": "See {IERC721Metadata-name}."
      },
      "owner()": {
        "details": "Returns the address of the current owner."
      },
      "ownerOf(uint256)": {
        "details": "See {IERC721-ownerOf}."
      },
      "renounceOwnership()": {
        "details": "Leaves the contract without owner. It will not be possible to call `onlyOwner` functions anymore. Can only be called by the current owner. NOTE: Renouncing ownership will leave the contract without an owner, thereby removing any functionality that is only available to the owner."
      },
      "safeTransferFrom(address,address,uint256)": {
        "details": "See {IERC721-safeTransferFrom}."
      },
      "safeTransferFrom(address,address,uint256,bytes)": {
        "details": "See {IERC721-safeTransferFrom}."
      },
      "setApprovalForAll(address,bool)": {
        "details": "See {IERC721-setApprovalForAll}."
      },
      "supportsInterface(bytes4)": {
        "details": "See {IERC165-supportsInterface}."
      },
      "symbol()": {
        "details": "See {IERC721Metadata-symbol}."
      },
      "tokenURI(uint256)": {
        "details": "See {IERC721Metadata-tokenURI}."
      },
      "transferFrom(address,address,uint256)": {
        "details": "See {IERC721-transferFrom}."
      },
      "transferOwnership(address)": {
        "details": "Transfers ownership of the contract to a new account (`newOwner`). Can only be called by the current owner."
      }
    },
    "version": 1
  },
  "userdoc": {
    "kind": "user",
    "methods": {},
    "version": 1
  }
}